{
	"simpoStorage.sol": {
		"SimpleStorage": {
			"abi": [
				{
					"inputs": [
						{
							"internalType": "uint256",
							"name": "",
							"type": "uint256"
						}
					],
					"name": "People",
					"outputs": [
						{
							"internalType": "uint256",
							"name": "num",
							"type": "uint256"
						},
						{
							"internalType": "string",
							"name": "name",
							"type": "string"
						}
					],
					"stateMutability": "view",
					"type": "function"
				},
				{
					"inputs": [
						{
							"internalType": "string",
							"name": "name",
							"type": "string"
						},
						{
							"internalType": "uint256",
							"name": "num",
							"type": "uint256"
						}
					],
					"name": "addpersons",
					"outputs": [],
					"stateMutability": "nonpayable",
					"type": "function"
				},
				{
					"inputs": [],
					"name": "fuInt",
					"outputs": [
						{
							"internalType": "uint256",
							"name": "",
							"type": "uint256"
						}
					],
					"stateMutability": "view",
					"type": "function"
				},
				{
					"inputs": [
						{
							"internalType": "string",
							"name": "",
							"type": "string"
						}
					],
					"name": "nameToNumber",
					"outputs": [
						{
							"internalType": "uint256",
							"name": "",
							"type": "uint256"
						}
					],
					"stateMutability": "view",
					"type": "function"
				},
				{
					"inputs": [],
					"name": "person1",
					"outputs": [
						{
							"internalType": "uint256",
							"name": "num",
							"type": "uint256"
						},
						{
							"internalType": "string",
							"name": "name",
							"type": "string"
						}
					],
					"stateMutability": "view",
					"type": "function"
				},
				{
					"inputs": [],
					"name": "retrieve",
					"outputs": [
						{
							"internalType": "uint256",
							"name": "",
							"type": "uint256"
						}
					],
					"stateMutability": "view",
					"type": "function"
				},
				{
					"inputs": [
						{
							"internalType": "uint256",
							"name": "name",
							"type": "uint256"
						}
					],
					"name": "store",
					"outputs": [],
					"stateMutability": "nonpayable",
					"type": "function"
				}
			],
			"devdoc": {
				"kind": "dev",
				"methods": {},
				"version": 1
			},
			"evm": {
				"assembly": "    /* \"simpoStorage.sol\":64:869  contract SimpleStorage {... */\n  mstore(0x40, 0x80)\n    /* \"simpoStorage.sol\":150:152  25 */\n  0x19\n    /* \"simpoStorage.sol\":128:152  uint256 public fuInt= 25 */\n  0x01\n  sstore\n    /* \"simpoStorage.sol\":609:634  people({num:97,name:\"G\"}) */\n  mload(0x40)\n  dup1\n  0x40\n  add\n  0x40\n  mstore\n  dup1\n    /* \"simpoStorage.sol\":621:623  97 */\n  0x61\n    /* \"simpoStorage.sol\":609:634  people({num:97,name:\"G\"}) */\n  dup2\n  mstore\n  0x20\n  add\n  mload(0x40)\n  dup1\n  0x40\n  add\n  0x40\n  mstore\n  dup1\n  0x01\n  dup2\n  mstore\n  0x20\n  add\n  0x4700000000000000000000000000000000000000000000000000000000000000\n  dup2\n  mstore\n  pop\n  dup2\n  mstore\n  pop\n    /* \"simpoStorage.sol\":587:634  people public person1=people({num:97,name:\"G\"}) */\n  0x02\n  0x00\n  dup3\n  add\n  mload\n  dup2\n  0x00\n  add\n  sstore\n  0x20\n  dup3\n  add\n  mload\n  dup2\n  0x01\n  add\n  swap1\n  dup2\n  tag_1\n  swap2\n  swap1\n  tag_2\n  jump\t// in\ntag_1:\n  pop\n  pop\n  pop\n    /* \"simpoStorage.sol\":64:869  contract SimpleStorage {... */\n  callvalue\n  dup1\n  iszero\n  tag_3\n  jumpi\n  0x00\n  dup1\n  revert\ntag_3:\n  pop\n  jump(tag_4)\n    /* \"#utility.yul\":7:106   */\ntag_5:\n    /* \"#utility.yul\":59:65   */\n  0x00\n    /* \"#utility.yul\":93:98   */\n  dup2\n    /* \"#utility.yul\":87:99   */\n  mload\n    /* \"#utility.yul\":77:99   */\n  swap1\n  pop\n    /* \"#utility.yul\":7:106   */\n  swap2\n  swap1\n  pop\n  jump\t// out\n    /* \"#utility.yul\":112:292   */\ntag_6:\n    /* \"#utility.yul\":160:237   */\n  0x4e487b7100000000000000000000000000000000000000000000000000000000\n    /* \"#utility.yul\":157:158   */\n  0x00\n    /* \"#utility.yul\":150:238   */\n  mstore\n    /* \"#utility.yul\":257:261   */\n  0x41\n    /* \"#utility.yul\":254:255   */\n  0x04\n    /* \"#utility.yul\":247:262   */\n  mstore\n    /* \"#utility.yul\":281:285   */\n  0x24\n    /* \"#utility.yul\":278:279   */\n  0x00\n    /* \"#utility.yul\":271:286   */\n  revert\n    /* \"#utility.yul\":298:478   */\ntag_7:\n    /* \"#utility.yul\":346:423   */\n  0x4e487b7100000000000000000000000000000000000000000000000000000000\n    /* \"#utility.yul\":343:344   */\n  0x00\n    /* \"#utility.yul\":336:424   */\n  mstore\n    /* \"#utility.yul\":443:447   */\n  0x22\n    /* \"#utility.yul\":440:441   */\n  0x04\n    /* \"#utility.yul\":433:448   */\n  mstore\n    /* \"#utility.yul\":467:471   */\n  0x24\n    /* \"#utility.yul\":464:465   */\n  0x00\n    /* \"#utility.yul\":457:472   */\n  revert\n    /* \"#utility.yul\":484:804   */\ntag_8:\n    /* \"#utility.yul\":528:534   */\n  0x00\n    /* \"#utility.yul\":565:566   */\n  0x02\n    /* \"#utility.yul\":559:563   */\n  dup3\n    /* \"#utility.yul\":555:567   */\n  div\n    /* \"#utility.yul\":545:567   */\n  swap1\n  pop\n    /* \"#utility.yul\":612:613   */\n  0x01\n    /* \"#utility.yul\":606:610   */\n  dup3\n    /* \"#utility.yul\":602:614   */\n  and\n    /* \"#utility.yul\":633:651   */\n  dup1\n    /* \"#utility.yul\":623:704   */\n  tag_30\n  jumpi\n    /* \"#utility.yul\":689:693   */\n  0x7f\n    /* \"#utility.yul\":681:687   */\n  dup3\n    /* \"#utility.yul\":677:694   */\n  and\n    /* \"#utility.yul\":667:694   */\n  swap2\n  pop\n    /* \"#utility.yul\":623:704   */\ntag_30:\n    /* \"#utility.yul\":751:753   */\n  0x20\n    /* \"#utility.yul\":743:749   */\n  dup3\n    /* \"#utility.yul\":740:754   */\n  lt\n    /* \"#utility.yul\":720:738   */\n  dup2\n    /* \"#utility.yul\":717:755   */\n  sub\n    /* \"#utility.yul\":714:798   */\n  tag_31\n  jumpi\n    /* \"#utility.yul\":770:788   */\n  tag_32\n  tag_7\n  jump\t// in\ntag_32:\n    /* \"#utility.yul\":714:798   */\ntag_31:\n    /* \"#utility.yul\":535:804   */\n  pop\n    /* \"#utility.yul\":484:804   */\n  swap2\n  swap1\n  pop\n  jump\t// out\n    /* \"#utility.yul\":810:951   */\ntag_9:\n    /* \"#utility.yul\":859:863   */\n  0x00\n    /* \"#utility.yul\":882:885   */\n  dup2\n    /* \"#utility.yul\":874:885   */\n  swap1\n  pop\n    /* \"#utility.yul\":905:908   */\n  dup2\n    /* \"#utility.yul\":902:903   */\n  0x00\n    /* \"#utility.yul\":895:909   */\n  mstore\n    /* \"#utility.yul\":939:943   */\n  0x20\n    /* \"#utility.yul\":936:937   */\n  0x00\n    /* \"#utility.yul\":926:944   */\n  keccak256\n    /* \"#utility.yul\":918:944   */\n  swap1\n  pop\n    /* \"#utility.yul\":810:951   */\n  swap2\n  swap1\n  pop\n  jump\t// out\n    /* \"#utility.yul\":957:1050   */\ntag_10:\n    /* \"#utility.yul\":994:1000   */\n  0x00\n    /* \"#utility.yul\":1041:1043   */\n  0x20\n    /* \"#utility.yul\":1036:1038   */\n  0x1f\n    /* \"#utility.yul\":1029:1034   */\n  dup4\n    /* \"#utility.yul\":1025:1039   */\n  add\n    /* \"#utility.yul\":1021:1044   */\n  div\n    /* \"#utility.yul\":1011:1044   */\n  swap1\n  pop\n    /* \"#utility.yul\":957:1050   */\n  swap2\n  swap1\n  pop\n  jump\t// out\n    /* \"#utility.yul\":1056:1163   */\ntag_11:\n    /* \"#utility.yul\":1100:1108   */\n  0x00\n    /* \"#utility.yul\":1150:1155   */\n  dup3\n    /* \"#utility.yul\":1144:1148   */\n  dup3\n    /* \"#utility.yul\":1140:1156   */\n  shl\n    /* \"#utility.yul\":1119:1156   */\n  swap1\n  pop\n    /* \"#utility.yul\":1056:1163   */\n  swap3\n  swap2\n  pop\n  pop\n  jump\t// out\n    /* \"#utility.yul\":1169:1562   */\ntag_12:\n    /* \"#utility.yul\":1238:1244   */\n  0x00\n    /* \"#utility.yul\":1288:1289   */\n  0x08\n    /* \"#utility.yul\":1276:1286   */\n  dup4\n    /* \"#utility.yul\":1272:1290   */\n  mul\n    /* \"#utility.yul\":1311:1408   */\n  tag_37\n    /* \"#utility.yul\":1341:1407   */\n  0xffffffffffffffffffffffffffffffffffffffffffffffffffffffffffffffff\n    /* \"#utility.yul\":1330:1339   */\n  dup3\n    /* \"#utility.yul\":1311:1408   */\n  tag_11\n  jump\t// in\ntag_37:\n    /* \"#utility.yul\":1429:1468   */\n  tag_38\n    /* \"#utility.yul\":1459:1467   */\n  dup7\n    /* \"#utility.yul\":1448:1457   */\n  dup4\n    /* \"#utility.yul\":1429:1468   */\n  tag_11\n  jump\t// in\ntag_38:\n    /* \"#utility.yul\":1417:1468   */\n  swap6\n  pop\n    /* \"#utility.yul\":1501:1505   */\n  dup1\n    /* \"#utility.yul\":1497:1506   */\n  not\n    /* \"#utility.yul\":1490:1495   */\n  dup5\n    /* \"#utility.yul\":1486:1507   */\n  and\n    /* \"#utility.yul\":1477:1507   */\n  swap4\n  pop\n    /* \"#utility.yul\":1550:1554   */\n  dup1\n    /* \"#utility.yul\":1540:1548   */\n  dup7\n    /* \"#utility.yul\":1536:1555   */\n  and\n    /* \"#utility.yul\":1529:1534   */\n  dup5\n    /* \"#utility.yul\":1526:1556   */\n  or\n    /* \"#utility.yul\":1516:1556   */\n  swap3\n  pop\n    /* \"#utility.yul\":1245:1562   */\n  pop\n  pop\n    /* \"#utility.yul\":1169:1562   */\n  swap4\n  swap3\n  pop\n  pop\n  pop\n  jump\t// out\n    /* \"#utility.yul\":1568:1645   */\ntag_13:\n    /* \"#utility.yul\":1605:1612   */\n  0x00\n    /* \"#utility.yul\":1634:1639   */\n  dup2\n    /* \"#utility.yul\":1623:1639   */\n  swap1\n  pop\n    /* \"#utility.yul\":1568:1645   */\n  swap2\n  swap1\n  pop\n  jump\t// out\n    /* \"#utility.yul\":1651:1711   */\ntag_14:\n    /* \"#utility.yul\":1679:1682   */\n  0x00\n    /* \"#utility.yul\":1700:1705   */\n  dup2\n    /* \"#utility.yul\":1693:1705   */\n  swap1\n  pop\n    /* \"#utility.yul\":1651:1711   */\n  swap2\n  swap1\n  pop\n  jump\t// out\n    /* \"#utility.yul\":1717:1859   */\ntag_15:\n    /* \"#utility.yul\":1767:1776   */\n  0x00\n    /* \"#utility.yul\":1800:1853   */\n  tag_42\n    /* \"#utility.yul\":1818:1852   */\n  tag_43\n    /* \"#utility.yul\":1827:1851   */\n  tag_44\n    /* \"#utility.yul\":1845:1850   */\n  dup5\n    /* \"#utility.yul\":1827:1851   */\n  tag_13\n  jump\t// in\ntag_44:\n    /* \"#utility.yul\":1818:1852   */\n  tag_14\n  jump\t// in\ntag_43:\n    /* \"#utility.yul\":1800:1853   */\n  tag_13\n  jump\t// in\ntag_42:\n    /* \"#utility.yul\":1787:1853   */\n  swap1\n  pop\n    /* \"#utility.yul\":1717:1859   */\n  swap2\n  swap1\n  pop\n  jump\t// out\n    /* \"#utility.yul\":1865:1940   */\ntag_16:\n    /* \"#utility.yul\":1908:1911   */\n  0x00\n    /* \"#utility.yul\":1929:1934   */\n  dup2\n    /* \"#utility.yul\":1922:1934   */\n  swap1\n  pop\n    /* \"#utility.yul\":1865:1940   */\n  swap2\n  swap1\n  pop\n  jump\t// out\n    /* \"#utility.yul\":1946:2215   */\ntag_17:\n    /* \"#utility.yul\":2056:2095   */\n  tag_47\n    /* \"#utility.yul\":2087:2094   */\n  dup4\n    /* \"#utility.yul\":2056:2095   */\n  tag_15\n  jump\t// in\ntag_47:\n    /* \"#utility.yul\":2117:2208   */\n  tag_48\n    /* \"#utility.yul\":2166:2207   */\n  tag_49\n    /* \"#utility.yul\":2190:2206   */\n  dup3\n    /* \"#utility.yul\":2166:2207   */\n  tag_16\n  jump\t// in\ntag_49:\n    /* \"#utility.yul\":2158:2164   */\n  dup5\n    /* \"#utility.yul\":2151:2155   */\n  dup5\n    /* \"#utility.yul\":2145:2156   */\n  sload\n    /* \"#utility.yul\":2117:2208   */\n  tag_12\n  jump\t// in\ntag_48:\n    /* \"#utility.yul\":2111:2115   */\n  dup3\n    /* \"#utility.yul\":2104:2209   */\n  sstore\n    /* \"#utility.yul\":2022:2215   */\n  pop\n    /* \"#utility.yul\":1946:2215   */\n  pop\n  pop\n  pop\n  jump\t// out\n    /* \"#utility.yul\":2221:2294   */\ntag_18:\n    /* \"#utility.yul\":2266:2269   */\n  0x00\n    /* \"#utility.yul\":2221:2294   */\n  swap1\n  jump\t// out\n    /* \"#utility.yul\":2300:2489   */\ntag_19:\n    /* \"#utility.yul\":2377:2409   */\n  tag_52\n  tag_18\n  jump\t// in\ntag_52:\n    /* \"#utility.yul\":2418:2483   */\n  tag_53\n    /* \"#utility.yul\":2476:2482   */\n  dup2\n    /* \"#utility.yul\":2468:2474   */\n  dup5\n    /* \"#utility.yul\":2462:2466   */\n  dup5\n    /* \"#utility.yul\":2418:2483   */\n  tag_17\n  jump\t// in\ntag_53:\n    /* \"#utility.yul\":2353:2489   */\n  pop\n    /* \"#utility.yul\":2300:2489   */\n  pop\n  pop\n  jump\t// out\n    /* \"#utility.yul\":2495:2681   */\ntag_20:\n    /* \"#utility.yul\":2555:2675   */\ntag_55:\n    /* \"#utility.yul\":2572:2575   */\n  dup2\n    /* \"#utility.yul\":2565:2570   */\n  dup2\n    /* \"#utility.yul\":2562:2576   */\n  lt\n    /* \"#utility.yul\":2555:2675   */\n  iszero\n  tag_57\n  jumpi\n    /* \"#utility.yul\":2626:2665   */\n  tag_58\n    /* \"#utility.yul\":2663:2664   */\n  0x00\n    /* \"#utility.yul\":2656:2661   */\n  dup3\n    /* \"#utility.yul\":2626:2665   */\n  tag_19\n  jump\t// in\ntag_58:\n    /* \"#utility.yul\":2599:2600   */\n  0x01\n    /* \"#utility.yul\":2592:2597   */\n  dup2\n    /* \"#utility.yul\":2588:2601   */\n  add\n    /* \"#utility.yul\":2579:2601   */\n  swap1\n  pop\n    /* \"#utility.yul\":2555:2675   */\n  jump(tag_55)\ntag_57:\n    /* \"#utility.yul\":2495:2681   */\n  pop\n  pop\n  jump\t// out\n    /* \"#utility.yul\":2687:3230   */\ntag_21:\n    /* \"#utility.yul\":2788:2790   */\n  0x1f\n    /* \"#utility.yul\":2783:2786   */\n  dup3\n    /* \"#utility.yul\":2780:2791   */\n  gt\n    /* \"#utility.yul\":2777:3223   */\n  iszero\n  tag_60\n  jumpi\n    /* \"#utility.yul\":2822:2860   */\n  tag_61\n    /* \"#utility.yul\":2854:2859   */\n  dup2\n    /* \"#utility.yul\":2822:2860   */\n  tag_9\n  jump\t// in\ntag_61:\n    /* \"#utility.yul\":2906:2935   */\n  tag_62\n    /* \"#utility.yul\":2924:2934   */\n  dup5\n    /* \"#utility.yul\":2906:2935   */\n  tag_10\n  jump\t// in\ntag_62:\n    /* \"#utility.yul\":2896:2904   */\n  dup2\n    /* \"#utility.yul\":2892:2936   */\n  add\n    /* \"#utility.yul\":3089:3091   */\n  0x20\n    /* \"#utility.yul\":3077:3087   */\n  dup6\n    /* \"#utility.yul\":3074:3092   */\n  lt\n    /* \"#utility.yul\":3071:3120   */\n  iszero\n  tag_63\n  jumpi\n    /* \"#utility.yul\":3110:3118   */\n  dup2\n    /* \"#utility.yul\":3095:3118   */\n  swap1\n  pop\n    /* \"#utility.yul\":3071:3120   */\ntag_63:\n    /* \"#utility.yul\":3133:3213   */\n  tag_64\n    /* \"#utility.yul\":3189:3211   */\n  tag_65\n    /* \"#utility.yul\":3207:3210   */\n  dup6\n    /* \"#utility.yul\":3189:3211   */\n  tag_10\n  jump\t// in\ntag_65:\n    /* \"#utility.yul\":3179:3187   */\n  dup4\n    /* \"#utility.yul\":3175:3212   */\n  add\n    /* \"#utility.yul\":3162:3173   */\n  dup3\n    /* \"#utility.yul\":3133:3213   */\n  tag_20\n  jump\t// in\ntag_64:\n    /* \"#utility.yul\":2792:3223   */\n  pop\n  pop\n    /* \"#utility.yul\":2777:3223   */\ntag_60:\n    /* \"#utility.yul\":2687:3230   */\n  pop\n  pop\n  pop\n  jump\t// out\n    /* \"#utility.yul\":3236:3353   */\ntag_22:\n    /* \"#utility.yul\":3290:3298   */\n  0x00\n    /* \"#utility.yul\":3340:3345   */\n  dup3\n    /* \"#utility.yul\":3334:3338   */\n  dup3\n    /* \"#utility.yul\":3330:3346   */\n  shr\n    /* \"#utility.yul\":3309:3346   */\n  swap1\n  pop\n    /* \"#utility.yul\":3236:3353   */\n  swap3\n  swap2\n  pop\n  pop\n  jump\t// out\n    /* \"#utility.yul\":3359:3528   */\ntag_23:\n    /* \"#utility.yul\":3403:3409   */\n  0x00\n    /* \"#utility.yul\":3436:3487   */\n  tag_68\n    /* \"#utility.yul\":3484:3485   */\n  0x00\n    /* \"#utility.yul\":3480:3486   */\n  not\n    /* \"#utility.yul\":3472:3477   */\n  dup5\n    /* \"#utility.yul\":3469:3470   */\n  0x08\n    /* \"#utility.yul\":3465:3478   */\n  mul\n    /* \"#utility.yul\":3436:3487   */\n  tag_22\n  jump\t// in\ntag_68:\n    /* \"#utility.yul\":3432:3488   */\n  not\n    /* \"#utility.yul\":3517:3521   */\n  dup1\n    /* \"#utility.yul\":3511:3515   */\n  dup4\n    /* \"#utility.yul\":3507:3522   */\n  and\n    /* \"#utility.yul\":3497:3522   */\n  swap2\n  pop\n    /* \"#utility.yul\":3410:3528   */\n  pop\n    /* \"#utility.yul\":3359:3528   */\n  swap3\n  swap2\n  pop\n  pop\n  jump\t// out\n    /* \"#utility.yul\":3533:3828   */\ntag_24:\n    /* \"#utility.yul\":3609:3613   */\n  0x00\n    /* \"#utility.yul\":3755:3784   */\n  tag_70\n    /* \"#utility.yul\":3780:3783   */\n  dup4\n    /* \"#utility.yul\":3774:3778   */\n  dup4\n    /* \"#utility.yul\":3755:3784   */\n  tag_23\n  jump\t// in\ntag_70:\n    /* \"#utility.yul\":3747:3784   */\n  swap2\n  pop\n    /* \"#utility.yul\":3817:3820   */\n  dup3\n    /* \"#utility.yul\":3814:3815   */\n  0x02\n    /* \"#utility.yul\":3810:3821   */\n  mul\n    /* \"#utility.yul\":3804:3808   */\n  dup3\n    /* \"#utility.yul\":3801:3822   */\n  or\n    /* \"#utility.yul\":3793:3822   */\n  swap1\n  pop\n    /* \"#utility.yul\":3533:3828   */\n  swap3\n  swap2\n  pop\n  pop\n  jump\t// out\n    /* \"#utility.yul\":3833:5228   */\ntag_2:\n    /* \"#utility.yul\":3950:3987   */\n  tag_72\n    /* \"#utility.yul\":3983:3986   */\n  dup3\n    /* \"#utility.yul\":3950:3987   */\n  tag_5\n  jump\t// in\ntag_72:\n    /* \"#utility.yul\":4052:4070   */\n  0xffffffffffffffff\n    /* \"#utility.yul\":4044:4050   */\n  dup2\n    /* \"#utility.yul\":4041:4071   */\n  gt\n    /* \"#utility.yul\":4038:4094   */\n  iszero\n  tag_73\n  jumpi\n    /* \"#utility.yul\":4074:4092   */\n  tag_74\n  tag_6\n  jump\t// in\ntag_74:\n    /* \"#utility.yul\":4038:4094   */\ntag_73:\n    /* \"#utility.yul\":4118:4156   */\n  tag_75\n    /* \"#utility.yul\":4150:4154   */\n  dup3\n    /* \"#utility.yul\":4144:4155   */\n  sload\n    /* \"#utility.yul\":4118:4156   */\n  tag_8\n  jump\t// in\ntag_75:\n    /* \"#utility.yul\":4203:4270   */\n  tag_76\n    /* \"#utility.yul\":4263:4269   */\n  dup3\n    /* \"#utility.yul\":4255:4261   */\n  dup3\n    /* \"#utility.yul\":4249:4253   */\n  dup6\n    /* \"#utility.yul\":4203:4270   */\n  tag_21\n  jump\t// in\ntag_76:\n    /* \"#utility.yul\":4297:4298   */\n  0x00\n    /* \"#utility.yul\":4321:4325   */\n  0x20\n    /* \"#utility.yul\":4308:4325   */\n  swap1\n  pop\n    /* \"#utility.yul\":4353:4355   */\n  0x1f\n    /* \"#utility.yul\":4345:4351   */\n  dup4\n    /* \"#utility.yul\":4342:4356   */\n  gt\n    /* \"#utility.yul\":4370:4371   */\n  0x01\n    /* \"#utility.yul\":4365:4983   */\n  dup2\n  eq\n  tag_78\n  jumpi\n    /* \"#utility.yul\":5027:5028   */\n  0x00\n    /* \"#utility.yul\":5044:5050   */\n  dup5\n    /* \"#utility.yul\":5041:5118   */\n  iszero\n  tag_79\n  jumpi\n    /* \"#utility.yul\":5093:5102   */\n  dup3\n    /* \"#utility.yul\":5088:5091   */\n  dup8\n    /* \"#utility.yul\":5084:5103   */\n  add\n    /* \"#utility.yul\":5078:5104   */\n  mload\n    /* \"#utility.yul\":5069:5104   */\n  swap1\n  pop\n    /* \"#utility.yul\":5041:5118   */\ntag_79:\n    /* \"#utility.yul\":5144:5211   */\n  tag_80\n    /* \"#utility.yul\":5204:5210   */\n  dup6\n    /* \"#utility.yul\":5197:5202   */\n  dup3\n    /* \"#utility.yul\":5144:5211   */\n  tag_24\n  jump\t// in\ntag_80:\n    /* \"#utility.yul\":5138:5142   */\n  dup7\n    /* \"#utility.yul\":5131:5212   */\n  sstore\n    /* \"#utility.yul\":5000:5222   */\n  pop\n    /* \"#utility.yul\":4335:5222   */\n  jump(tag_77)\n    /* \"#utility.yul\":4365:4983   */\ntag_78:\n    /* \"#utility.yul\":4417:4421   */\n  0x1f\n    /* \"#utility.yul\":4413:4422   */\n  not\n    /* \"#utility.yul\":4405:4411   */\n  dup5\n    /* \"#utility.yul\":4401:4423   */\n  and\n    /* \"#utility.yul\":4451:4488   */\n  tag_81\n    /* \"#utility.yul\":4483:4487   */\n  dup7\n    /* \"#utility.yul\":4451:4488   */\n  tag_9\n  jump\t// in\ntag_81:\n    /* \"#utility.yul\":4510:4511   */\n  0x00\n    /* \"#utility.yul\":4524:4732   */\ntag_82:\n    /* \"#utility.yul\":4538:4545   */\n  dup3\n    /* \"#utility.yul\":4535:4536   */\n  dup2\n    /* \"#utility.yul\":4532:4546   */\n  lt\n    /* \"#utility.yul\":4524:4732   */\n  iszero\n  tag_84\n  jumpi\n    /* \"#utility.yul\":4617:4626   */\n  dup5\n    /* \"#utility.yul\":4612:4615   */\n  dup10\n    /* \"#utility.yul\":4608:4627   */\n  add\n    /* \"#utility.yul\":4602:4628   */\n  mload\n    /* \"#utility.yul\":4594:4600   */\n  dup3\n    /* \"#utility.yul\":4587:4629   */\n  sstore\n    /* \"#utility.yul\":4668:4669   */\n  0x01\n    /* \"#utility.yul\":4660:4666   */\n  dup3\n    /* \"#utility.yul\":4656:4670   */\n  add\n    /* \"#utility.yul\":4646:4670   */\n  swap2\n  pop\n    /* \"#utility.yul\":4715:4717   */\n  0x20\n    /* \"#utility.yul\":4704:4713   */\n  dup6\n    /* \"#utility.yul\":4700:4718   */\n  add\n    /* \"#utility.yul\":4687:4718   */\n  swap5\n  pop\n    /* \"#utility.yul\":4561:4565   */\n  0x20\n    /* \"#utility.yul\":4558:4559   */\n  dup2\n    /* \"#utility.yul\":4554:4566   */\n  add\n    /* \"#utility.yul\":4549:4566   */\n  swap1\n  pop\n    /* \"#utility.yul\":4524:4732   */\n  jump(tag_82)\ntag_84:\n    /* \"#utility.yul\":4760:4766   */\n  dup7\n    /* \"#utility.yul\":4751:4758   */\n  dup4\n    /* \"#utility.yul\":4748:4767   */\n  lt\n    /* \"#utility.yul\":4745:4924   */\n  iszero\n  tag_85\n  jumpi\n    /* \"#utility.yul\":4818:4827   */\n  dup5\n    /* \"#utility.yul\":4813:4816   */\n  dup10\n    /* \"#utility.yul\":4809:4828   */\n  add\n    /* \"#utility.yul\":4803:4829   */\n  mload\n    /* \"#utility.yul\":4861:4909   */\n  tag_86\n    /* \"#utility.yul\":4903:4907   */\n  0x1f\n    /* \"#utility.yul\":4895:4901   */\n  dup10\n    /* \"#utility.yul\":4891:4908   */\n  and\n    /* \"#utility.yul\":4880:4889   */\n  dup3\n    /* \"#utility.yul\":4861:4909   */\n  tag_23\n  jump\t// in\ntag_86:\n    /* \"#utility.yul\":4853:4859   */\n  dup4\n    /* \"#utility.yul\":4846:4910   */\n  sstore\n    /* \"#utility.yul\":4768:4924   */\n  pop\n    /* \"#utility.yul\":4745:4924   */\ntag_85:\n    /* \"#utility.yul\":4970:4971   */\n  0x01\n    /* \"#utility.yul\":4966:4967   */\n  0x02\n    /* \"#utility.yul\":4958:4964   */\n  dup9\n    /* \"#utility.yul\":4954:4968   */\n  mul\n    /* \"#utility.yul\":4950:4972   */\n  add\n    /* \"#utility.yul\":4944:4948   */\n  dup9\n    /* \"#utility.yul\":4937:4973   */\n  sstore\n    /* \"#utility.yul\":4372:4983   */\n  pop\n  pop\n  pop\n    /* \"#utility.yul\":4335:5222   */\ntag_77:\n  pop\n    /* \"#utility.yul\":3925:5228   */\n  pop\n  pop\n  pop\n    /* \"#utility.yul\":3833:5228   */\n  pop\n  pop\n  jump\t// out\n    /* \"simpoStorage.sol\":64:869  contract SimpleStorage {... */\ntag_4:\n  dataSize(sub_0)\n  dup1\n  dataOffset(sub_0)\n  0x00\n  codecopy\n  0x00\n  return\nstop\n\nsub_0: assembly {\n        /* \"simpoStorage.sol\":64:869  contract SimpleStorage {... */\n      mstore(0x40, 0x80)\n      callvalue\n      dup1\n      iszero\n      tag_1\n      jumpi\n      0x00\n      dup1\n      revert\n    tag_1:\n      pop\n      jumpi(tag_2, lt(calldatasize, 0x04))\n      shr(0xe0, calldataload(0x00))\n      dup1\n      0x46cb59c2\n      gt\n      tag_10\n      jumpi\n      dup1\n      0x46cb59c2\n      eq\n      tag_6\n      jumpi\n      dup1\n      0x6057361d\n      eq\n      tag_7\n      jumpi\n      dup1\n      0xc7fb3468\n      eq\n      tag_8\n      jumpi\n      dup1\n      0xdaa17951\n      eq\n      tag_9\n      jumpi\n      jump(tag_2)\n    tag_10:\n      dup1\n      0x2e64cec1\n      eq\n      tag_3\n      jumpi\n      dup1\n      0x2fae4ffd\n      eq\n      tag_4\n      jumpi\n      dup1\n      0x3fbd5bf0\n      eq\n      tag_5\n      jumpi\n    tag_2:\n      0x00\n      dup1\n      revert\n        /* \"simpoStorage.sol\":364:441  function retrieve() public view returns(uint256){... */\n    tag_3:\n      tag_11\n      tag_12\n      jump\t// in\n    tag_11:\n      mload(0x40)\n      tag_13\n      swap2\n      swap1\n      tag_14\n      jump\t// in\n    tag_13:\n      mload(0x40)\n      dup1\n      swap2\n      sub\n      swap1\n      return\n        /* \"simpoStorage.sol\":668:714  mapping(string => uint256) public nameToNumber */\n    tag_4:\n      tag_15\n      0x04\n      dup1\n      calldatasize\n      sub\n      dup2\n      add\n      swap1\n      tag_16\n      swap2\n      swap1\n      tag_17\n      jump\t// in\n    tag_16:\n      tag_18\n      jump\t// in\n    tag_15:\n      mload(0x40)\n      tag_19\n      swap2\n      swap1\n      tag_14\n      jump\t// in\n    tag_19:\n      mload(0x40)\n      dup1\n      swap2\n      sub\n      swap1\n      return\n        /* \"simpoStorage.sol\":720:867  function addpersons(string memory name,uint256 num) public{... */\n    tag_5:\n      tag_20\n      0x04\n      dup1\n      calldatasize\n      sub\n      dup2\n      add\n      swap1\n      tag_21\n      swap2\n      swap1\n      tag_22\n      jump\t// in\n    tag_21:\n      tag_23\n      jump\t// in\n    tag_20:\n      stop\n        /* \"simpoStorage.sol\":587:634  people public person1=people({num:97,name:\"G\"}) */\n    tag_6:\n      tag_24\n      tag_25\n      jump\t// in\n    tag_24:\n      mload(0x40)\n      tag_26\n      swap3\n      swap2\n      swap1\n      tag_27\n      jump\t// in\n    tag_26:\n      mload(0x40)\n      dup1\n      swap2\n      sub\n      swap1\n      return\n        /* \"simpoStorage.sol\":299:359  function store(uint name) public{... */\n    tag_7:\n      tag_28\n      0x04\n      dup1\n      calldatasize\n      sub\n      dup2\n      add\n      swap1\n      tag_29\n      swap2\n      swap1\n      tag_30\n      jump\t// in\n    tag_29:\n      tag_31\n      jump\t// in\n    tag_28:\n      stop\n        /* \"simpoStorage.sol\":640:662  people[] public People */\n    tag_8:\n      tag_32\n      0x04\n      dup1\n      calldatasize\n      sub\n      dup2\n      add\n      swap1\n      tag_33\n      swap2\n      swap1\n      tag_30\n      jump\t// in\n    tag_33:\n      tag_34\n      jump\t// in\n    tag_32:\n      mload(0x40)\n      tag_35\n      swap3\n      swap2\n      swap1\n      tag_27\n      jump\t// in\n    tag_35:\n      mload(0x40)\n      dup1\n      swap2\n      sub\n      swap1\n      return\n        /* \"simpoStorage.sol\":128:152  uint256 public fuInt= 25 */\n    tag_9:\n      tag_36\n      tag_37\n      jump\t// in\n    tag_36:\n      mload(0x40)\n      tag_38\n      swap2\n      swap1\n      tag_14\n      jump\t// in\n    tag_38:\n      mload(0x40)\n      dup1\n      swap2\n      sub\n      swap1\n      return\n        /* \"simpoStorage.sol\":364:441  function retrieve() public view returns(uint256){... */\n    tag_12:\n        /* \"simpoStorage.sol\":404:411  uint256 */\n      0x00\n        /* \"simpoStorage.sol\":429:434  fuInt */\n      sload(0x01)\n        /* \"simpoStorage.sol\":422:434  return fuInt */\n      swap1\n      pop\n        /* \"simpoStorage.sol\":364:441  function retrieve() public view returns(uint256){... */\n      swap1\n      jump\t// out\n        /* \"simpoStorage.sol\":668:714  mapping(string => uint256) public nameToNumber */\n    tag_18:\n      0x05\n      dup2\n      dup1\n      mload\n      0x20\n      dup2\n      add\n      dup3\n      add\n      dup1\n      mload\n      dup5\n      dup3\n      mstore\n      0x20\n      dup4\n      add\n      0x20\n      dup6\n      add\n      keccak256\n      dup2\n      dup4\n      mstore\n      dup1\n      swap6\n      pop\n      pop\n      pop\n      pop\n      pop\n      pop\n      0x00\n      swap2\n      pop\n      swap1\n      pop\n      sload\n      dup2\n      jump\t// out\n        /* \"simpoStorage.sol\":720:867  function addpersons(string memory name,uint256 num) public{... */\n    tag_23:\n        /* \"simpoStorage.sol\":788:794  People */\n      0x04\n        /* \"simpoStorage.sol\":800:827  people({num:num,name:name}) */\n      mload(0x40)\n      dup1\n      0x40\n      add\n      0x40\n      mstore\n      dup1\n        /* \"simpoStorage.sol\":812:815  num */\n      dup4\n        /* \"simpoStorage.sol\":800:827  people({num:num,name:name}) */\n      dup2\n      mstore\n      0x20\n      add\n        /* \"simpoStorage.sol\":821:825  name */\n      dup5\n        /* \"simpoStorage.sol\":800:827  people({num:num,name:name}) */\n      dup2\n      mstore\n      pop\n        /* \"simpoStorage.sol\":788:828  People.push(people({num:num,name:name})) */\n      swap1\n      dup1\n      0x01\n      dup2\n      sload\n      add\n      dup1\n      dup3\n      sstore\n      dup1\n      swap2\n      pop\n      pop\n      0x01\n      swap1\n      sub\n      swap1\n      0x00\n      mstore\n      keccak256(0x00, 0x20)\n      swap1\n      0x02\n      mul\n      add\n      0x00\n      swap1\n      swap2\n      swap1\n      swap2\n      swap1\n      swap2\n      pop\n      0x00\n      dup3\n      add\n      mload\n      dup2\n      0x00\n      add\n      sstore\n      0x20\n      dup3\n      add\n      mload\n      dup2\n      0x01\n      add\n      swap1\n      dup2\n      tag_42\n      swap2\n      swap1\n      tag_43\n      jump\t// in\n    tag_42:\n      pop\n      pop\n      pop\n        /* \"simpoStorage.sol\":857:860  num */\n      dup1\n        /* \"simpoStorage.sol\":838:850  nameToNumber */\n      0x05\n        /* \"simpoStorage.sol\":851:855  name */\n      dup4\n        /* \"simpoStorage.sol\":838:856  nameToNumber[name] */\n      mload(0x40)\n      tag_44\n      swap2\n      swap1\n      tag_45\n      jump\t// in\n    tag_44:\n      swap1\n      dup2\n      mstore\n      0x20\n      add\n      mload(0x40)\n      dup1\n      swap2\n      sub\n      swap1\n      keccak256\n        /* \"simpoStorage.sol\":838:860  nameToNumber[name]=num */\n      dup2\n      swap1\n      sstore\n      pop\n        /* \"simpoStorage.sol\":720:867  function addpersons(string memory name,uint256 num) public{... */\n      pop\n      pop\n      jump\t// out\n        /* \"simpoStorage.sol\":587:634  people public person1=people({num:97,name:\"G\"}) */\n    tag_25:\n      0x02\n      dup1\n      0x00\n      add\n      sload\n      swap1\n      dup1\n      0x01\n      add\n      dup1\n      sload\n      tag_46\n      swap1\n      tag_47\n      jump\t// in\n    tag_46:\n      dup1\n      0x1f\n      add\n      0x20\n      dup1\n      swap2\n      div\n      mul\n      0x20\n      add\n      mload(0x40)\n      swap1\n      dup2\n      add\n      0x40\n      mstore\n      dup1\n      swap3\n      swap2\n      swap1\n      dup2\n      dup2\n      mstore\n      0x20\n      add\n      dup3\n      dup1\n      sload\n      tag_48\n      swap1\n      tag_47\n      jump\t// in\n    tag_48:\n      dup1\n      iszero\n      tag_49\n      jumpi\n      dup1\n      0x1f\n      lt\n      tag_50\n      jumpi\n      0x0100\n      dup1\n      dup4\n      sload\n      div\n      mul\n      dup4\n      mstore\n      swap2\n      0x20\n      add\n      swap2\n      jump(tag_49)\n    tag_50:\n      dup3\n      add\n      swap2\n      swap1\n      0x00\n      mstore\n      keccak256(0x00, 0x20)\n      swap1\n    tag_51:\n      dup2\n      sload\n      dup2\n      mstore\n      swap1\n      0x01\n      add\n      swap1\n      0x20\n      add\n      dup1\n      dup4\n      gt\n      tag_51\n      jumpi\n      dup3\n      swap1\n      sub\n      0x1f\n      and\n      dup3\n      add\n      swap2\n    tag_49:\n      pop\n      pop\n      pop\n      pop\n      pop\n      swap1\n      pop\n      dup3\n      jump\t// out\n        /* \"simpoStorage.sol\":299:359  function store(uint name) public{... */\n    tag_31:\n        /* \"simpoStorage.sol\":348:352  name */\n      dup1\n        /* \"simpoStorage.sol\":341:346  fuInt */\n      0x01\n        /* \"simpoStorage.sol\":341:352  fuInt= name */\n      dup2\n      swap1\n      sstore\n      pop\n        /* \"simpoStorage.sol\":299:359  function store(uint name) public{... */\n      pop\n      jump\t// out\n        /* \"simpoStorage.sol\":640:662  people[] public People */\n    tag_34:\n      0x04\n      dup2\n      dup2\n      sload\n      dup2\n      lt\n      tag_53\n      jumpi\n      0x00\n      dup1\n      revert\n    tag_53:\n      swap1\n      0x00\n      mstore\n      keccak256(0x00, 0x20)\n      swap1\n      0x02\n      mul\n      add\n      0x00\n      swap2\n      pop\n      swap1\n      pop\n      dup1\n      0x00\n      add\n      sload\n      swap1\n      dup1\n      0x01\n      add\n      dup1\n      sload\n      tag_55\n      swap1\n      tag_47\n      jump\t// in\n    tag_55:\n      dup1\n      0x1f\n      add\n      0x20\n      dup1\n      swap2\n      div\n      mul\n      0x20\n      add\n      mload(0x40)\n      swap1\n      dup2\n      add\n      0x40\n      mstore\n      dup1\n      swap3\n      swap2\n      swap1\n      dup2\n      dup2\n      mstore\n      0x20\n      add\n      dup3\n      dup1\n      sload\n      tag_56\n      swap1\n      tag_47\n      jump\t// in\n    tag_56:\n      dup1\n      iszero\n      tag_57\n      jumpi\n      dup1\n      0x1f\n      lt\n      tag_58\n      jumpi\n      0x0100\n      dup1\n      dup4\n      sload\n      div\n      mul\n      dup4\n      mstore\n      swap2\n      0x20\n      add\n      swap2\n      jump(tag_57)\n    tag_58:\n      dup3\n      add\n      swap2\n      swap1\n      0x00\n      mstore\n      keccak256(0x00, 0x20)\n      swap1\n    tag_59:\n      dup2\n      sload\n      dup2\n      mstore\n      swap1\n      0x01\n      add\n      swap1\n      0x20\n      add\n      dup1\n      dup4\n      gt\n      tag_59\n      jumpi\n      dup3\n      swap1\n      sub\n      0x1f\n      and\n      dup3\n      add\n      swap2\n    tag_57:\n      pop\n      pop\n      pop\n      pop\n      pop\n      swap1\n      pop\n      dup3\n      jump\t// out\n        /* \"simpoStorage.sol\":128:152  uint256 public fuInt= 25 */\n    tag_37:\n      sload(0x01)\n      dup2\n      jump\t// out\n        /* \"#utility.yul\":7:84   */\n    tag_60:\n        /* \"#utility.yul\":44:51   */\n      0x00\n        /* \"#utility.yul\":73:78   */\n      dup2\n        /* \"#utility.yul\":62:78   */\n      swap1\n      pop\n        /* \"#utility.yul\":7:84   */\n      swap2\n      swap1\n      pop\n      jump\t// out\n        /* \"#utility.yul\":90:208   */\n    tag_61:\n        /* \"#utility.yul\":177:201   */\n      tag_102\n        /* \"#utility.yul\":195:200   */\n      dup2\n        /* \"#utility.yul\":177:201   */\n      tag_60\n      jump\t// in\n    tag_102:\n        /* \"#utility.yul\":172:175   */\n      dup3\n        /* \"#utility.yul\":165:202   */\n      mstore\n        /* \"#utility.yul\":90:208   */\n      pop\n      pop\n      jump\t// out\n        /* \"#utility.yul\":214:436   */\n    tag_14:\n        /* \"#utility.yul\":307:311   */\n      0x00\n        /* \"#utility.yul\":345:347   */\n      0x20\n        /* \"#utility.yul\":334:343   */\n      dup3\n        /* \"#utility.yul\":330:348   */\n      add\n        /* \"#utility.yul\":322:348   */\n      swap1\n      pop\n        /* \"#utility.yul\":358:429   */\n      tag_104\n        /* \"#utility.yul\":426:427   */\n      0x00\n        /* \"#utility.yul\":415:424   */\n      dup4\n        /* \"#utility.yul\":411:428   */\n      add\n        /* \"#utility.yul\":402:408   */\n      dup5\n        /* \"#utility.yul\":358:429   */\n      tag_61\n      jump\t// in\n    tag_104:\n        /* \"#utility.yul\":214:436   */\n      swap3\n      swap2\n      pop\n      pop\n      jump\t// out\n        /* \"#utility.yul\":442:517   */\n    tag_62:\n        /* \"#utility.yul\":475:481   */\n      0x00\n        /* \"#utility.yul\":508:510   */\n      0x40\n        /* \"#utility.yul\":502:511   */\n      mload\n        /* \"#utility.yul\":492:511   */\n      swap1\n      pop\n        /* \"#utility.yul\":442:517   */\n      swap1\n      jump\t// out\n        /* \"#utility.yul\":523:640   */\n    tag_63:\n        /* \"#utility.yul\":632:633   */\n      0x00\n        /* \"#utility.yul\":629:630   */\n      dup1\n        /* \"#utility.yul\":622:634   */\n      revert\n        /* \"#utility.yul\":646:763   */\n    tag_64:\n        /* \"#utility.yul\":755:756   */\n      0x00\n        /* \"#utility.yul\":752:753   */\n      dup1\n        /* \"#utility.yul\":745:757   */\n      revert\n        /* \"#utility.yul\":769:886   */\n    tag_65:\n        /* \"#utility.yul\":878:879   */\n      0x00\n        /* \"#utility.yul\":875:876   */\n      dup1\n        /* \"#utility.yul\":868:880   */\n      revert\n        /* \"#utility.yul\":892:1009   */\n    tag_66:\n        /* \"#utility.yul\":1001:1002   */\n      0x00\n        /* \"#utility.yul\":998:999   */\n      dup1\n        /* \"#utility.yul\":991:1003   */\n      revert\n        /* \"#utility.yul\":1015:1117   */\n    tag_67:\n        /* \"#utility.yul\":1056:1062   */\n      0x00\n        /* \"#utility.yul\":1107:1109   */\n      0x1f\n        /* \"#utility.yul\":1103:1110   */\n      not\n        /* \"#utility.yul\":1098:1100   */\n      0x1f\n        /* \"#utility.yul\":1091:1096   */\n      dup4\n        /* \"#utility.yul\":1087:1101   */\n      add\n        /* \"#utility.yul\":1083:1111   */\n      and\n        /* \"#utility.yul\":1073:1111   */\n      swap1\n      pop\n        /* \"#utility.yul\":1015:1117   */\n      swap2\n      swap1\n      pop\n      jump\t// out\n        /* \"#utility.yul\":1123:1303   */\n    tag_68:\n        /* \"#utility.yul\":1171:1248   */\n      0x4e487b7100000000000000000000000000000000000000000000000000000000\n        /* \"#utility.yul\":1168:1169   */\n      0x00\n        /* \"#utility.yul\":1161:1249   */\n      mstore\n        /* \"#utility.yul\":1268:1272   */\n      0x41\n        /* \"#utility.yul\":1265:1266   */\n      0x04\n        /* \"#utility.yul\":1258:1273   */\n      mstore\n        /* \"#utility.yul\":1292:1296   */\n      0x24\n        /* \"#utility.yul\":1289:1290   */\n      0x00\n        /* \"#utility.yul\":1282:1297   */\n      revert\n        /* \"#utility.yul\":1309:1590   */\n    tag_69:\n        /* \"#utility.yul\":1392:1419   */\n      tag_113\n        /* \"#utility.yul\":1414:1418   */\n      dup3\n        /* \"#utility.yul\":1392:1419   */\n      tag_67\n      jump\t// in\n    tag_113:\n        /* \"#utility.yul\":1384:1390   */\n      dup2\n        /* \"#utility.yul\":1380:1420   */\n      add\n        /* \"#utility.yul\":1522:1528   */\n      dup2\n        /* \"#utility.yul\":1510:1520   */\n      dup2\n        /* \"#utility.yul\":1507:1529   */\n      lt\n        /* \"#utility.yul\":1486:1504   */\n      0xffffffffffffffff\n        /* \"#utility.yul\":1474:1484   */\n      dup3\n        /* \"#utility.yul\":1471:1505   */\n      gt\n        /* \"#utility.yul\":1468:1530   */\n      or\n        /* \"#utility.yul\":1465:1553   */\n      iszero\n      tag_114\n      jumpi\n        /* \"#utility.yul\":1533:1551   */\n      tag_115\n      tag_68\n      jump\t// in\n    tag_115:\n        /* \"#utility.yul\":1465:1553   */\n    tag_114:\n        /* \"#utility.yul\":1573:1583   */\n      dup1\n        /* \"#utility.yul\":1569:1571   */\n      0x40\n        /* \"#utility.yul\":1562:1584   */\n      mstore\n        /* \"#utility.yul\":1352:1590   */\n      pop\n        /* \"#utility.yul\":1309:1590   */\n      pop\n      pop\n      jump\t// out\n        /* \"#utility.yul\":1596:1725   */\n    tag_70:\n        /* \"#utility.yul\":1630:1636   */\n      0x00\n        /* \"#utility.yul\":1657:1677   */\n      tag_117\n      tag_62\n      jump\t// in\n    tag_117:\n        /* \"#utility.yul\":1647:1677   */\n      swap1\n      pop\n        /* \"#utility.yul\":1686:1719   */\n      tag_118\n        /* \"#utility.yul\":1714:1718   */\n      dup3\n        /* \"#utility.yul\":1706:1712   */\n      dup3\n        /* \"#utility.yul\":1686:1719   */\n      tag_69\n      jump\t// in\n    tag_118:\n        /* \"#utility.yul\":1596:1725   */\n      swap2\n      swap1\n      pop\n      jump\t// out\n        /* \"#utility.yul\":1731:2039   */\n    tag_71:\n        /* \"#utility.yul\":1793:1797   */\n      0x00\n        /* \"#utility.yul\":1883:1901   */\n      0xffffffffffffffff\n        /* \"#utility.yul\":1875:1881   */\n      dup3\n        /* \"#utility.yul\":1872:1902   */\n      gt\n        /* \"#utility.yul\":1869:1925   */\n      iszero\n      tag_120\n      jumpi\n        /* \"#utility.yul\":1905:1923   */\n      tag_121\n      tag_68\n      jump\t// in\n    tag_121:\n        /* \"#utility.yul\":1869:1925   */\n    tag_120:\n        /* \"#utility.yul\":1943:1972   */\n      tag_122\n        /* \"#utility.yul\":1965:1971   */\n      dup3\n        /* \"#utility.yul\":1943:1972   */\n      tag_67\n      jump\t// in\n    tag_122:\n        /* \"#utility.yul\":1935:1972   */\n      swap1\n      pop\n        /* \"#utility.yul\":2027:2031   */\n      0x20\n        /* \"#utility.yul\":2021:2025   */\n      dup2\n        /* \"#utility.yul\":2017:2032   */\n      add\n        /* \"#utility.yul\":2009:2032   */\n      swap1\n      pop\n        /* \"#utility.yul\":1731:2039   */\n      swap2\n      swap1\n      pop\n      jump\t// out\n        /* \"#utility.yul\":2045:2191   */\n    tag_72:\n        /* \"#utility.yul\":2142:2148   */\n      dup3\n        /* \"#utility.yul\":2137:2140   */\n      dup2\n        /* \"#utility.yul\":2132:2135   */\n      dup4\n        /* \"#utility.yul\":2119:2149   */\n      calldatacopy\n        /* \"#utility.yul\":2183:2184   */\n      0x00\n        /* \"#utility.yul\":2174:2180   */\n      dup4\n        /* \"#utility.yul\":2169:2172   */\n      dup4\n        /* \"#utility.yul\":2165:2181   */\n      add\n        /* \"#utility.yul\":2158:2185   */\n      mstore\n        /* \"#utility.yul\":2045:2191   */\n      pop\n      pop\n      pop\n      jump\t// out\n        /* \"#utility.yul\":2197:2622   */\n    tag_73:\n        /* \"#utility.yul\":2275:2280   */\n      0x00\n        /* \"#utility.yul\":2300:2366   */\n      tag_125\n        /* \"#utility.yul\":2316:2365   */\n      tag_126\n        /* \"#utility.yul\":2358:2364   */\n      dup5\n        /* \"#utility.yul\":2316:2365   */\n      tag_71\n      jump\t// in\n    tag_126:\n        /* \"#utility.yul\":2300:2366   */\n      tag_70\n      jump\t// in\n    tag_125:\n        /* \"#utility.yul\":2291:2366   */\n      swap1\n      pop\n        /* \"#utility.yul\":2389:2395   */\n      dup3\n        /* \"#utility.yul\":2382:2387   */\n      dup2\n        /* \"#utility.yul\":2375:2396   */\n      mstore\n        /* \"#utility.yul\":2427:2431   */\n      0x20\n        /* \"#utility.yul\":2420:2425   */\n      dup2\n        /* \"#utility.yul\":2416:2432   */\n      add\n        /* \"#utility.yul\":2465:2468   */\n      dup5\n        /* \"#utility.yul\":2456:2462   */\n      dup5\n        /* \"#utility.yul\":2451:2454   */\n      dup5\n        /* \"#utility.yul\":2447:2463   */\n      add\n        /* \"#utility.yul\":2444:2469   */\n      gt\n        /* \"#utility.yul\":2441:2553   */\n      iszero\n      tag_127\n      jumpi\n        /* \"#utility.yul\":2472:2551   */\n      tag_128\n      tag_66\n      jump\t// in\n    tag_128:\n        /* \"#utility.yul\":2441:2553   */\n    tag_127:\n        /* \"#utility.yul\":2562:2616   */\n      tag_129\n        /* \"#utility.yul\":2609:2615   */\n      dup5\n        /* \"#utility.yul\":2604:2607   */\n      dup3\n        /* \"#utility.yul\":2599:2602   */\n      dup6\n        /* \"#utility.yul\":2562:2616   */\n      tag_72\n      jump\t// in\n    tag_129:\n        /* \"#utility.yul\":2281:2622   */\n      pop\n        /* \"#utility.yul\":2197:2622   */\n      swap4\n      swap3\n      pop\n      pop\n      pop\n      jump\t// out\n        /* \"#utility.yul\":2642:2982   */\n    tag_74:\n        /* \"#utility.yul\":2698:2703   */\n      0x00\n        /* \"#utility.yul\":2747:2750   */\n      dup3\n        /* \"#utility.yul\":2740:2744   */\n      0x1f\n        /* \"#utility.yul\":2732:2738   */\n      dup4\n        /* \"#utility.yul\":2728:2745   */\n      add\n        /* \"#utility.yul\":2724:2751   */\n      slt\n        /* \"#utility.yul\":2714:2836   */\n      tag_131\n      jumpi\n        /* \"#utility.yul\":2755:2834   */\n      tag_132\n      tag_65\n      jump\t// in\n    tag_132:\n        /* \"#utility.yul\":2714:2836   */\n    tag_131:\n        /* \"#utility.yul\":2872:2878   */\n      dup2\n        /* \"#utility.yul\":2859:2879   */\n      calldataload\n        /* \"#utility.yul\":2897:2976   */\n      tag_133\n        /* \"#utility.yul\":2972:2975   */\n      dup5\n        /* \"#utility.yul\":2964:2970   */\n      dup3\n        /* \"#utility.yul\":2957:2961   */\n      0x20\n        /* \"#utility.yul\":2949:2955   */\n      dup7\n        /* \"#utility.yul\":2945:2962   */\n      add\n        /* \"#utility.yul\":2897:2976   */\n      tag_73\n      jump\t// in\n    tag_133:\n        /* \"#utility.yul\":2888:2976   */\n      swap2\n      pop\n        /* \"#utility.yul\":2704:2982   */\n      pop\n        /* \"#utility.yul\":2642:2982   */\n      swap3\n      swap2\n      pop\n      pop\n      jump\t// out\n        /* \"#utility.yul\":2988:3497   */\n    tag_17:\n        /* \"#utility.yul\":3057:3063   */\n      0x00\n        /* \"#utility.yul\":3106:3108   */\n      0x20\n        /* \"#utility.yul\":3094:3103   */\n      dup3\n        /* \"#utility.yul\":3085:3092   */\n      dup5\n        /* \"#utility.yul\":3081:3104   */\n      sub\n        /* \"#utility.yul\":3077:3109   */\n      slt\n        /* \"#utility.yul\":3074:3193   */\n      iszero\n      tag_135\n      jumpi\n        /* \"#utility.yul\":3112:3191   */\n      tag_136\n      tag_63\n      jump\t// in\n    tag_136:\n        /* \"#utility.yul\":3074:3193   */\n    tag_135:\n        /* \"#utility.yul\":3260:3261   */\n      0x00\n        /* \"#utility.yul\":3249:3258   */\n      dup3\n        /* \"#utility.yul\":3245:3262   */\n      add\n        /* \"#utility.yul\":3232:3263   */\n      calldataload\n        /* \"#utility.yul\":3290:3308   */\n      0xffffffffffffffff\n        /* \"#utility.yul\":3282:3288   */\n      dup2\n        /* \"#utility.yul\":3279:3309   */\n      gt\n        /* \"#utility.yul\":3276:3393   */\n      iszero\n      tag_137\n      jumpi\n        /* \"#utility.yul\":3312:3391   */\n      tag_138\n      tag_64\n      jump\t// in\n    tag_138:\n        /* \"#utility.yul\":3276:3393   */\n    tag_137:\n        /* \"#utility.yul\":3417:3480   */\n      tag_139\n        /* \"#utility.yul\":3472:3479   */\n      dup5\n        /* \"#utility.yul\":3463:3469   */\n      dup3\n        /* \"#utility.yul\":3452:3461   */\n      dup6\n        /* \"#utility.yul\":3448:3470   */\n      add\n        /* \"#utility.yul\":3417:3480   */\n      tag_74\n      jump\t// in\n    tag_139:\n        /* \"#utility.yul\":3407:3480   */\n      swap2\n      pop\n        /* \"#utility.yul\":3203:3490   */\n      pop\n        /* \"#utility.yul\":2988:3497   */\n      swap3\n      swap2\n      pop\n      pop\n      jump\t// out\n        /* \"#utility.yul\":3503:3625   */\n    tag_75:\n        /* \"#utility.yul\":3576:3600   */\n      tag_141\n        /* \"#utility.yul\":3594:3599   */\n      dup2\n        /* \"#utility.yul\":3576:3600   */\n      tag_60\n      jump\t// in\n    tag_141:\n        /* \"#utility.yul\":3569:3574   */\n      dup2\n        /* \"#utility.yul\":3566:3601   */\n      eq\n        /* \"#utility.yul\":3556:3619   */\n      tag_142\n      jumpi\n        /* \"#utility.yul\":3615:3616   */\n      0x00\n        /* \"#utility.yul\":3612:3613   */\n      dup1\n        /* \"#utility.yul\":3605:3617   */\n      revert\n        /* \"#utility.yul\":3556:3619   */\n    tag_142:\n        /* \"#utility.yul\":3503:3625   */\n      pop\n      jump\t// out\n        /* \"#utility.yul\":3631:3770   */\n    tag_76:\n        /* \"#utility.yul\":3677:3682   */\n      0x00\n        /* \"#utility.yul\":3715:3721   */\n      dup2\n        /* \"#utility.yul\":3702:3722   */\n      calldataload\n        /* \"#utility.yul\":3693:3722   */\n      swap1\n      pop\n        /* \"#utility.yul\":3731:3764   */\n      tag_144\n        /* \"#utility.yul\":3758:3763   */\n      dup2\n        /* \"#utility.yul\":3731:3764   */\n      tag_75\n      jump\t// in\n    tag_144:\n        /* \"#utility.yul\":3631:3770   */\n      swap3\n      swap2\n      pop\n      pop\n      jump\t// out\n        /* \"#utility.yul\":3776:4430   */\n    tag_22:\n        /* \"#utility.yul\":3854:3860   */\n      0x00\n        /* \"#utility.yul\":3862:3868   */\n      dup1\n        /* \"#utility.yul\":3911:3913   */\n      0x40\n        /* \"#utility.yul\":3899:3908   */\n      dup4\n        /* \"#utility.yul\":3890:3897   */\n      dup6\n        /* \"#utility.yul\":3886:3909   */\n      sub\n        /* \"#utility.yul\":3882:3914   */\n      slt\n        /* \"#utility.yul\":3879:3998   */\n      iszero\n      tag_146\n      jumpi\n        /* \"#utility.yul\":3917:3996   */\n      tag_147\n      tag_63\n      jump\t// in\n    tag_147:\n        /* \"#utility.yul\":3879:3998   */\n    tag_146:\n        /* \"#utility.yul\":4065:4066   */\n      0x00\n        /* \"#utility.yul\":4054:4063   */\n      dup4\n        /* \"#utility.yul\":4050:4067   */\n      add\n        /* \"#utility.yul\":4037:4068   */\n      calldataload\n        /* \"#utility.yul\":4095:4113   */\n      0xffffffffffffffff\n        /* \"#utility.yul\":4087:4093   */\n      dup2\n        /* \"#utility.yul\":4084:4114   */\n      gt\n        /* \"#utility.yul\":4081:4198   */\n      iszero\n      tag_148\n      jumpi\n        /* \"#utility.yul\":4117:4196   */\n      tag_149\n      tag_64\n      jump\t// in\n    tag_149:\n        /* \"#utility.yul\":4081:4198   */\n    tag_148:\n        /* \"#utility.yul\":4222:4285   */\n      tag_150\n        /* \"#utility.yul\":4277:4284   */\n      dup6\n        /* \"#utility.yul\":4268:4274   */\n      dup3\n        /* \"#utility.yul\":4257:4266   */\n      dup7\n        /* \"#utility.yul\":4253:4275   */\n      add\n        /* \"#utility.yul\":4222:4285   */\n      tag_74\n      jump\t// in\n    tag_150:\n        /* \"#utility.yul\":4212:4285   */\n      swap3\n      pop\n        /* \"#utility.yul\":4008:4295   */\n      pop\n        /* \"#utility.yul\":4334:4336   */\n      0x20\n        /* \"#utility.yul\":4360:4413   */\n      tag_151\n        /* \"#utility.yul\":4405:4412   */\n      dup6\n        /* \"#utility.yul\":4396:4402   */\n      dup3\n        /* \"#utility.yul\":4385:4394   */\n      dup7\n        /* \"#utility.yul\":4381:4403   */\n      add\n        /* \"#utility.yul\":4360:4413   */\n      tag_76\n      jump\t// in\n    tag_151:\n        /* \"#utility.yul\":4350:4413   */\n      swap2\n      pop\n        /* \"#utility.yul\":4305:4423   */\n      pop\n        /* \"#utility.yul\":3776:4430   */\n      swap3\n      pop\n      swap3\n      swap1\n      pop\n      jump\t// out\n        /* \"#utility.yul\":4436:4535   */\n    tag_77:\n        /* \"#utility.yul\":4488:4494   */\n      0x00\n        /* \"#utility.yul\":4522:4527   */\n      dup2\n        /* \"#utility.yul\":4516:4528   */\n      mload\n        /* \"#utility.yul\":4506:4528   */\n      swap1\n      pop\n        /* \"#utility.yul\":4436:4535   */\n      swap2\n      swap1\n      pop\n      jump\t// out\n        /* \"#utility.yul\":4541:4710   */\n    tag_78:\n        /* \"#utility.yul\":4625:4636   */\n      0x00\n        /* \"#utility.yul\":4659:4665   */\n      dup3\n        /* \"#utility.yul\":4654:4657   */\n      dup3\n        /* \"#utility.yul\":4647:4666   */\n      mstore\n        /* \"#utility.yul\":4699:4703   */\n      0x20\n        /* \"#utility.yul\":4694:4697   */\n      dup3\n        /* \"#utility.yul\":4690:4704   */\n      add\n        /* \"#utility.yul\":4675:4704   */\n      swap1\n      pop\n        /* \"#utility.yul\":4541:4710   */\n      swap3\n      swap2\n      pop\n      pop\n      jump\t// out\n        /* \"#utility.yul\":4716:4962   */\n    tag_79:\n        /* \"#utility.yul\":4797:4798   */\n      0x00\n        /* \"#utility.yul\":4807:4920   */\n    tag_155:\n        /* \"#utility.yul\":4821:4827   */\n      dup4\n        /* \"#utility.yul\":4818:4819   */\n      dup2\n        /* \"#utility.yul\":4815:4828   */\n      lt\n        /* \"#utility.yul\":4807:4920   */\n      iszero\n      tag_157\n      jumpi\n        /* \"#utility.yul\":4906:4907   */\n      dup1\n        /* \"#utility.yul\":4901:4904   */\n      dup3\n        /* \"#utility.yul\":4897:4908   */\n      add\n        /* \"#utility.yul\":4891:4909   */\n      mload\n        /* \"#utility.yul\":4887:4888   */\n      dup2\n        /* \"#utility.yul\":4882:4885   */\n      dup5\n        /* \"#utility.yul\":4878:4889   */\n      add\n        /* \"#utility.yul\":4871:4910   */\n      mstore\n        /* \"#utility.yul\":4843:4845   */\n      0x20\n        /* \"#utility.yul\":4840:4841   */\n      dup2\n        /* \"#utility.yul\":4836:4846   */\n      add\n        /* \"#utility.yul\":4831:4846   */\n      swap1\n      pop\n        /* \"#utility.yul\":4807:4920   */\n      jump(tag_155)\n    tag_157:\n        /* \"#utility.yul\":4954:4955   */\n      0x00\n        /* \"#utility.yul\":4945:4951   */\n      dup5\n        /* \"#utility.yul\":4940:4943   */\n      dup5\n        /* \"#utility.yul\":4936:4952   */\n      add\n        /* \"#utility.yul\":4929:4956   */\n      mstore\n        /* \"#utility.yul\":4778:4962   */\n      pop\n        /* \"#utility.yul\":4716:4962   */\n      pop\n      pop\n      pop\n      jump\t// out\n        /* \"#utility.yul\":4968:5345   */\n    tag_80:\n        /* \"#utility.yul\":5056:5059   */\n      0x00\n        /* \"#utility.yul\":5084:5123   */\n      tag_159\n        /* \"#utility.yul\":5117:5122   */\n      dup3\n        /* \"#utility.yul\":5084:5123   */\n      tag_77\n      jump\t// in\n    tag_159:\n        /* \"#utility.yul\":5139:5210   */\n      tag_160\n        /* \"#utility.yul\":5203:5209   */\n      dup2\n        /* \"#utility.yul\":5198:5201   */\n      dup6\n        /* \"#utility.yul\":5139:5210   */\n      tag_78\n      jump\t// in\n    tag_160:\n        /* \"#utility.yul\":5132:5210   */\n      swap4\n      pop\n        /* \"#utility.yul\":5219:5284   */\n      tag_161\n        /* \"#utility.yul\":5277:5283   */\n      dup2\n        /* \"#utility.yul\":5272:5275   */\n      dup6\n        /* \"#utility.yul\":5265:5269   */\n      0x20\n        /* \"#utility.yul\":5258:5263   */\n      dup7\n        /* \"#utility.yul\":5254:5270   */\n      add\n        /* \"#utility.yul\":5219:5284   */\n      tag_79\n      jump\t// in\n    tag_161:\n        /* \"#utility.yul\":5309:5338   */\n      tag_162\n        /* \"#utility.yul\":5331:5337   */\n      dup2\n        /* \"#utility.yul\":5309:5338   */\n      tag_67\n      jump\t// in\n    tag_162:\n        /* \"#utility.yul\":5304:5307   */\n      dup5\n        /* \"#utility.yul\":5300:5339   */\n      add\n        /* \"#utility.yul\":5293:5339   */\n      swap2\n      pop\n        /* \"#utility.yul\":5060:5345   */\n      pop\n        /* \"#utility.yul\":4968:5345   */\n      swap3\n      swap2\n      pop\n      pop\n      jump\t// out\n        /* \"#utility.yul\":5351:5774   */\n    tag_27:\n        /* \"#utility.yul\":5492:5496   */\n      0x00\n        /* \"#utility.yul\":5530:5532   */\n      0x40\n        /* \"#utility.yul\":5519:5528   */\n      dup3\n        /* \"#utility.yul\":5515:5533   */\n      add\n        /* \"#utility.yul\":5507:5533   */\n      swap1\n      pop\n        /* \"#utility.yul\":5543:5614   */\n      tag_164\n        /* \"#utility.yul\":5611:5612   */\n      0x00\n        /* \"#utility.yul\":5600:5609   */\n      dup4\n        /* \"#utility.yul\":5596:5613   */\n      add\n        /* \"#utility.yul\":5587:5593   */\n      dup6\n        /* \"#utility.yul\":5543:5614   */\n      tag_61\n      jump\t// in\n    tag_164:\n        /* \"#utility.yul\":5661:5670   */\n      dup2\n        /* \"#utility.yul\":5655:5659   */\n      dup2\n        /* \"#utility.yul\":5651:5671   */\n      sub\n        /* \"#utility.yul\":5646:5648   */\n      0x20\n        /* \"#utility.yul\":5635:5644   */\n      dup4\n        /* \"#utility.yul\":5631:5649   */\n      add\n        /* \"#utility.yul\":5624:5672   */\n      mstore\n        /* \"#utility.yul\":5689:5767   */\n      tag_165\n        /* \"#utility.yul\":5762:5766   */\n      dup2\n        /* \"#utility.yul\":5753:5759   */\n      dup5\n        /* \"#utility.yul\":5689:5767   */\n      tag_80\n      jump\t// in\n    tag_165:\n        /* \"#utility.yul\":5681:5767   */\n      swap1\n      pop\n        /* \"#utility.yul\":5351:5774   */\n      swap4\n      swap3\n      pop\n      pop\n      pop\n      jump\t// out\n        /* \"#utility.yul\":5780:6109   */\n    tag_30:\n        /* \"#utility.yul\":5839:5845   */\n      0x00\n        /* \"#utility.yul\":5888:5890   */\n      0x20\n        /* \"#utility.yul\":5876:5885   */\n      dup3\n        /* \"#utility.yul\":5867:5874   */\n      dup5\n        /* \"#utility.yul\":5863:5886   */\n      sub\n        /* \"#utility.yul\":5859:5891   */\n      slt\n        /* \"#utility.yul\":5856:5975   */\n      iszero\n      tag_167\n      jumpi\n        /* \"#utility.yul\":5894:5973   */\n      tag_168\n      tag_63\n      jump\t// in\n    tag_168:\n        /* \"#utility.yul\":5856:5975   */\n    tag_167:\n        /* \"#utility.yul\":6014:6015   */\n      0x00\n        /* \"#utility.yul\":6039:6092   */\n      tag_169\n        /* \"#utility.yul\":6084:6091   */\n      dup5\n        /* \"#utility.yul\":6075:6081   */\n      dup3\n        /* \"#utility.yul\":6064:6073   */\n      dup6\n        /* \"#utility.yul\":6060:6082   */\n      add\n        /* \"#utility.yul\":6039:6092   */\n      tag_76\n      jump\t// in\n    tag_169:\n        /* \"#utility.yul\":6029:6092   */\n      swap2\n      pop\n        /* \"#utility.yul\":5985:6102   */\n      pop\n        /* \"#utility.yul\":5780:6109   */\n      swap3\n      swap2\n      pop\n      pop\n      jump\t// out\n        /* \"#utility.yul\":6115:6295   */\n    tag_81:\n        /* \"#utility.yul\":6163:6240   */\n      0x4e487b7100000000000000000000000000000000000000000000000000000000\n        /* \"#utility.yul\":6160:6161   */\n      0x00\n        /* \"#utility.yul\":6153:6241   */\n      mstore\n        /* \"#utility.yul\":6260:6264   */\n      0x22\n        /* \"#utility.yul\":6257:6258   */\n      0x04\n        /* \"#utility.yul\":6250:6265   */\n      mstore\n        /* \"#utility.yul\":6284:6288   */\n      0x24\n        /* \"#utility.yul\":6281:6282   */\n      0x00\n        /* \"#utility.yul\":6274:6289   */\n      revert\n        /* \"#utility.yul\":6301:6621   */\n    tag_47:\n        /* \"#utility.yul\":6345:6351   */\n      0x00\n        /* \"#utility.yul\":6382:6383   */\n      0x02\n        /* \"#utility.yul\":6376:6380   */\n      dup3\n        /* \"#utility.yul\":6372:6384   */\n      div\n        /* \"#utility.yul\":6362:6384   */\n      swap1\n      pop\n        /* \"#utility.yul\":6429:6430   */\n      0x01\n        /* \"#utility.yul\":6423:6427   */\n      dup3\n        /* \"#utility.yul\":6419:6431   */\n      and\n        /* \"#utility.yul\":6450:6468   */\n      dup1\n        /* \"#utility.yul\":6440:6521   */\n      tag_172\n      jumpi\n        /* \"#utility.yul\":6506:6510   */\n      0x7f\n        /* \"#utility.yul\":6498:6504   */\n      dup3\n        /* \"#utility.yul\":6494:6511   */\n      and\n        /* \"#utility.yul\":6484:6511   */\n      swap2\n      pop\n        /* \"#utility.yul\":6440:6521   */\n    tag_172:\n        /* \"#utility.yul\":6568:6570   */\n      0x20\n        /* \"#utility.yul\":6560:6566   */\n      dup3\n        /* \"#utility.yul\":6557:6571   */\n      lt\n        /* \"#utility.yul\":6537:6555   */\n      dup2\n        /* \"#utility.yul\":6534:6572   */\n      sub\n        /* \"#utility.yul\":6531:6615   */\n      tag_173\n      jumpi\n        /* \"#utility.yul\":6587:6605   */\n      tag_174\n      tag_81\n      jump\t// in\n    tag_174:\n        /* \"#utility.yul\":6531:6615   */\n    tag_173:\n        /* \"#utility.yul\":6352:6621   */\n      pop\n        /* \"#utility.yul\":6301:6621   */\n      swap2\n      swap1\n      pop\n      jump\t// out\n        /* \"#utility.yul\":6627:6768   */\n    tag_82:\n        /* \"#utility.yul\":6676:6680   */\n      0x00\n        /* \"#utility.yul\":6699:6702   */\n      dup2\n        /* \"#utility.yul\":6691:6702   */\n      swap1\n      pop\n        /* \"#utility.yul\":6722:6725   */\n      dup2\n        /* \"#utility.yul\":6719:6720   */\n      0x00\n        /* \"#utility.yul\":6712:6726   */\n      mstore\n        /* \"#utility.yul\":6756:6760   */\n      0x20\n        /* \"#utility.yul\":6753:6754   */\n      0x00\n        /* \"#utility.yul\":6743:6761   */\n      keccak256\n        /* \"#utility.yul\":6735:6761   */\n      swap1\n      pop\n        /* \"#utility.yul\":6627:6768   */\n      swap2\n      swap1\n      pop\n      jump\t// out\n        /* \"#utility.yul\":6774:6867   */\n    tag_83:\n        /* \"#utility.yul\":6811:6817   */\n      0x00\n        /* \"#utility.yul\":6858:6860   */\n      0x20\n        /* \"#utility.yul\":6853:6855   */\n      0x1f\n        /* \"#utility.yul\":6846:6851   */\n      dup4\n        /* \"#utility.yul\":6842:6856   */\n      add\n        /* \"#utility.yul\":6838:6861   */\n      div\n        /* \"#utility.yul\":6828:6861   */\n      swap1\n      pop\n        /* \"#utility.yul\":6774:6867   */\n      swap2\n      swap1\n      pop\n      jump\t// out\n        /* \"#utility.yul\":6873:6980   */\n    tag_84:\n        /* \"#utility.yul\":6917:6925   */\n      0x00\n        /* \"#utility.yul\":6967:6972   */\n      dup3\n        /* \"#utility.yul\":6961:6965   */\n      dup3\n        /* \"#utility.yul\":6957:6973   */\n      shl\n        /* \"#utility.yul\":6936:6973   */\n      swap1\n      pop\n        /* \"#utility.yul\":6873:6980   */\n      swap3\n      swap2\n      pop\n      pop\n      jump\t// out\n        /* \"#utility.yul\":6986:7379   */\n    tag_85:\n        /* \"#utility.yul\":7055:7061   */\n      0x00\n        /* \"#utility.yul\":7105:7106   */\n      0x08\n        /* \"#utility.yul\":7093:7103   */\n      dup4\n        /* \"#utility.yul\":7089:7107   */\n      mul\n        /* \"#utility.yul\":7128:7225   */\n      tag_179\n        /* \"#utility.yul\":7158:7224   */\n      0xffffffffffffffffffffffffffffffffffffffffffffffffffffffffffffffff\n        /* \"#utility.yul\":7147:7156   */\n      dup3\n        /* \"#utility.yul\":7128:7225   */\n      tag_84\n      jump\t// in\n    tag_179:\n        /* \"#utility.yul\":7246:7285   */\n      tag_180\n        /* \"#utility.yul\":7276:7284   */\n      dup7\n        /* \"#utility.yul\":7265:7274   */\n      dup4\n        /* \"#utility.yul\":7246:7285   */\n      tag_84\n      jump\t// in\n    tag_180:\n        /* \"#utility.yul\":7234:7285   */\n      swap6\n      pop\n        /* \"#utility.yul\":7318:7322   */\n      dup1\n        /* \"#utility.yul\":7314:7323   */\n      not\n        /* \"#utility.yul\":7307:7312   */\n      dup5\n        /* \"#utility.yul\":7303:7324   */\n      and\n        /* \"#utility.yul\":7294:7324   */\n      swap4\n      pop\n        /* \"#utility.yul\":7367:7371   */\n      dup1\n        /* \"#utility.yul\":7357:7365   */\n      dup7\n        /* \"#utility.yul\":7353:7372   */\n      and\n        /* \"#utility.yul\":7346:7351   */\n      dup5\n        /* \"#utility.yul\":7343:7373   */\n      or\n        /* \"#utility.yul\":7333:7373   */\n      swap3\n      pop\n        /* \"#utility.yul\":7062:7379   */\n      pop\n      pop\n        /* \"#utility.yul\":6986:7379   */\n      swap4\n      swap3\n      pop\n      pop\n      pop\n      jump\t// out\n        /* \"#utility.yul\":7385:7445   */\n    tag_86:\n        /* \"#utility.yul\":7413:7416   */\n      0x00\n        /* \"#utility.yul\":7434:7439   */\n      dup2\n        /* \"#utility.yul\":7427:7439   */\n      swap1\n      pop\n        /* \"#utility.yul\":7385:7445   */\n      swap2\n      swap1\n      pop\n      jump\t// out\n        /* \"#utility.yul\":7451:7593   */\n    tag_87:\n        /* \"#utility.yul\":7501:7510   */\n      0x00\n        /* \"#utility.yul\":7534:7587   */\n      tag_183\n        /* \"#utility.yul\":7552:7586   */\n      tag_184\n        /* \"#utility.yul\":7561:7585   */\n      tag_185\n        /* \"#utility.yul\":7579:7584   */\n      dup5\n        /* \"#utility.yul\":7561:7585   */\n      tag_60\n      jump\t// in\n    tag_185:\n        /* \"#utility.yul\":7552:7586   */\n      tag_86\n      jump\t// in\n    tag_184:\n        /* \"#utility.yul\":7534:7587   */\n      tag_60\n      jump\t// in\n    tag_183:\n        /* \"#utility.yul\":7521:7587   */\n      swap1\n      pop\n        /* \"#utility.yul\":7451:7593   */\n      swap2\n      swap1\n      pop\n      jump\t// out\n        /* \"#utility.yul\":7599:7674   */\n    tag_88:\n        /* \"#utility.yul\":7642:7645   */\n      0x00\n        /* \"#utility.yul\":7663:7668   */\n      dup2\n        /* \"#utility.yul\":7656:7668   */\n      swap1\n      pop\n        /* \"#utility.yul\":7599:7674   */\n      swap2\n      swap1\n      pop\n      jump\t// out\n        /* \"#utility.yul\":7680:7949   */\n    tag_89:\n        /* \"#utility.yul\":7790:7829   */\n      tag_188\n        /* \"#utility.yul\":7821:7828   */\n      dup4\n        /* \"#utility.yul\":7790:7829   */\n      tag_87\n      jump\t// in\n    tag_188:\n        /* \"#utility.yul\":7851:7942   */\n      tag_189\n        /* \"#utility.yul\":7900:7941   */\n      tag_190\n        /* \"#utility.yul\":7924:7940   */\n      dup3\n        /* \"#utility.yul\":7900:7941   */\n      tag_88\n      jump\t// in\n    tag_190:\n        /* \"#utility.yul\":7892:7898   */\n      dup5\n        /* \"#utility.yul\":7885:7889   */\n      dup5\n        /* \"#utility.yul\":7879:7890   */\n      sload\n        /* \"#utility.yul\":7851:7942   */\n      tag_85\n      jump\t// in\n    tag_189:\n        /* \"#utility.yul\":7845:7849   */\n      dup3\n        /* \"#utility.yul\":7838:7943   */\n      sstore\n        /* \"#utility.yul\":7756:7949   */\n      pop\n        /* \"#utility.yul\":7680:7949   */\n      pop\n      pop\n      pop\n      jump\t// out\n        /* \"#utility.yul\":7955:8028   */\n    tag_90:\n        /* \"#utility.yul\":8000:8003   */\n      0x00\n        /* \"#utility.yul\":7955:8028   */\n      swap1\n      jump\t// out\n        /* \"#utility.yul\":8034:8223   */\n    tag_91:\n        /* \"#utility.yul\":8111:8143   */\n      tag_193\n      tag_90\n      jump\t// in\n    tag_193:\n        /* \"#utility.yul\":8152:8217   */\n      tag_194\n        /* \"#utility.yul\":8210:8216   */\n      dup2\n        /* \"#utility.yul\":8202:8208   */\n      dup5\n        /* \"#utility.yul\":8196:8200   */\n      dup5\n        /* \"#utility.yul\":8152:8217   */\n      tag_89\n      jump\t// in\n    tag_194:\n        /* \"#utility.yul\":8087:8223   */\n      pop\n        /* \"#utility.yul\":8034:8223   */\n      pop\n      pop\n      jump\t// out\n        /* \"#utility.yul\":8229:8415   */\n    tag_92:\n        /* \"#utility.yul\":8289:8409   */\n    tag_196:\n        /* \"#utility.yul\":8306:8309   */\n      dup2\n        /* \"#utility.yul\":8299:8304   */\n      dup2\n        /* \"#utility.yul\":8296:8310   */\n      lt\n        /* \"#utility.yul\":8289:8409   */\n      iszero\n      tag_198\n      jumpi\n        /* \"#utility.yul\":8360:8399   */\n      tag_199\n        /* \"#utility.yul\":8397:8398   */\n      0x00\n        /* \"#utility.yul\":8390:8395   */\n      dup3\n        /* \"#utility.yul\":8360:8399   */\n      tag_91\n      jump\t// in\n    tag_199:\n        /* \"#utility.yul\":8333:8334   */\n      0x01\n        /* \"#utility.yul\":8326:8331   */\n      dup2\n        /* \"#utility.yul\":8322:8335   */\n      add\n        /* \"#utility.yul\":8313:8335   */\n      swap1\n      pop\n        /* \"#utility.yul\":8289:8409   */\n      jump(tag_196)\n    tag_198:\n        /* \"#utility.yul\":8229:8415   */\n      pop\n      pop\n      jump\t// out\n        /* \"#utility.yul\":8421:8964   */\n    tag_93:\n        /* \"#utility.yul\":8522:8524   */\n      0x1f\n        /* \"#utility.yul\":8517:8520   */\n      dup3\n        /* \"#utility.yul\":8514:8525   */\n      gt\n        /* \"#utility.yul\":8511:8957   */\n      iszero\n      tag_201\n      jumpi\n        /* \"#utility.yul\":8556:8594   */\n      tag_202\n        /* \"#utility.yul\":8588:8593   */\n      dup2\n        /* \"#utility.yul\":8556:8594   */\n      tag_82\n      jump\t// in\n    tag_202:\n        /* \"#utility.yul\":8640:8669   */\n      tag_203\n        /* \"#utility.yul\":8658:8668   */\n      dup5\n        /* \"#utility.yul\":8640:8669   */\n      tag_83\n      jump\t// in\n    tag_203:\n        /* \"#utility.yul\":8630:8638   */\n      dup2\n        /* \"#utility.yul\":8626:8670   */\n      add\n        /* \"#utility.yul\":8823:8825   */\n      0x20\n        /* \"#utility.yul\":8811:8821   */\n      dup6\n        /* \"#utility.yul\":8808:8826   */\n      lt\n        /* \"#utility.yul\":8805:8854   */\n      iszero\n      tag_204\n      jumpi\n        /* \"#utility.yul\":8844:8852   */\n      dup2\n        /* \"#utility.yul\":8829:8852   */\n      swap1\n      pop\n        /* \"#utility.yul\":8805:8854   */\n    tag_204:\n        /* \"#utility.yul\":8867:8947   */\n      tag_205\n        /* \"#utility.yul\":8923:8945   */\n      tag_206\n        /* \"#utility.yul\":8941:8944   */\n      dup6\n        /* \"#utility.yul\":8923:8945   */\n      tag_83\n      jump\t// in\n    tag_206:\n        /* \"#utility.yul\":8913:8921   */\n      dup4\n        /* \"#utility.yul\":8909:8946   */\n      add\n        /* \"#utility.yul\":8896:8907   */\n      dup3\n        /* \"#utility.yul\":8867:8947   */\n      tag_92\n      jump\t// in\n    tag_205:\n        /* \"#utility.yul\":8526:8957   */\n      pop\n      pop\n        /* \"#utility.yul\":8511:8957   */\n    tag_201:\n        /* \"#utility.yul\":8421:8964   */\n      pop\n      pop\n      pop\n      jump\t// out\n        /* \"#utility.yul\":8970:9087   */\n    tag_94:\n        /* \"#utility.yul\":9024:9032   */\n      0x00\n        /* \"#utility.yul\":9074:9079   */\n      dup3\n        /* \"#utility.yul\":9068:9072   */\n      dup3\n        /* \"#utility.yul\":9064:9080   */\n      shr\n        /* \"#utility.yul\":9043:9080   */\n      swap1\n      pop\n        /* \"#utility.yul\":8970:9087   */\n      swap3\n      swap2\n      pop\n      pop\n      jump\t// out\n        /* \"#utility.yul\":9093:9262   */\n    tag_95:\n        /* \"#utility.yul\":9137:9143   */\n      0x00\n        /* \"#utility.yul\":9170:9221   */\n      tag_209\n        /* \"#utility.yul\":9218:9219   */\n      0x00\n        /* \"#utility.yul\":9214:9220   */\n      not\n        /* \"#utility.yul\":9206:9211   */\n      dup5\n        /* \"#utility.yul\":9203:9204   */\n      0x08\n        /* \"#utility.yul\":9199:9212   */\n      mul\n        /* \"#utility.yul\":9170:9221   */\n      tag_94\n      jump\t// in\n    tag_209:\n        /* \"#utility.yul\":9166:9222   */\n      not\n        /* \"#utility.yul\":9251:9255   */\n      dup1\n        /* \"#utility.yul\":9245:9249   */\n      dup4\n        /* \"#utility.yul\":9241:9256   */\n      and\n        /* \"#utility.yul\":9231:9256   */\n      swap2\n      pop\n        /* \"#utility.yul\":9144:9262   */\n      pop\n        /* \"#utility.yul\":9093:9262   */\n      swap3\n      swap2\n      pop\n      pop\n      jump\t// out\n        /* \"#utility.yul\":9267:9562   */\n    tag_96:\n        /* \"#utility.yul\":9343:9347   */\n      0x00\n        /* \"#utility.yul\":9489:9518   */\n      tag_211\n        /* \"#utility.yul\":9514:9517   */\n      dup4\n        /* \"#utility.yul\":9508:9512   */\n      dup4\n        /* \"#utility.yul\":9489:9518   */\n      tag_95\n      jump\t// in\n    tag_211:\n        /* \"#utility.yul\":9481:9518   */\n      swap2\n      pop\n        /* \"#utility.yul\":9551:9554   */\n      dup3\n        /* \"#utility.yul\":9548:9549   */\n      0x02\n        /* \"#utility.yul\":9544:9555   */\n      mul\n        /* \"#utility.yul\":9538:9542   */\n      dup3\n        /* \"#utility.yul\":9535:9556   */\n      or\n        /* \"#utility.yul\":9527:9556   */\n      swap1\n      pop\n        /* \"#utility.yul\":9267:9562   */\n      swap3\n      swap2\n      pop\n      pop\n      jump\t// out\n        /* \"#utility.yul\":9567:10962   */\n    tag_43:\n        /* \"#utility.yul\":9684:9721   */\n      tag_213\n        /* \"#utility.yul\":9717:9720   */\n      dup3\n        /* \"#utility.yul\":9684:9721   */\n      tag_77\n      jump\t// in\n    tag_213:\n        /* \"#utility.yul\":9786:9804   */\n      0xffffffffffffffff\n        /* \"#utility.yul\":9778:9784   */\n      dup2\n        /* \"#utility.yul\":9775:9805   */\n      gt\n        /* \"#utility.yul\":9772:9828   */\n      iszero\n      tag_214\n      jumpi\n        /* \"#utility.yul\":9808:9826   */\n      tag_215\n      tag_68\n      jump\t// in\n    tag_215:\n        /* \"#utility.yul\":9772:9828   */\n    tag_214:\n        /* \"#utility.yul\":9852:9890   */\n      tag_216\n        /* \"#utility.yul\":9884:9888   */\n      dup3\n        /* \"#utility.yul\":9878:9889   */\n      sload\n        /* \"#utility.yul\":9852:9890   */\n      tag_47\n      jump\t// in\n    tag_216:\n        /* \"#utility.yul\":9937:10004   */\n      tag_217\n        /* \"#utility.yul\":9997:10003   */\n      dup3\n        /* \"#utility.yul\":9989:9995   */\n      dup3\n        /* \"#utility.yul\":9983:9987   */\n      dup6\n        /* \"#utility.yul\":9937:10004   */\n      tag_93\n      jump\t// in\n    tag_217:\n        /* \"#utility.yul\":10031:10032   */\n      0x00\n        /* \"#utility.yul\":10055:10059   */\n      0x20\n        /* \"#utility.yul\":10042:10059   */\n      swap1\n      pop\n        /* \"#utility.yul\":10087:10089   */\n      0x1f\n        /* \"#utility.yul\":10079:10085   */\n      dup4\n        /* \"#utility.yul\":10076:10090   */\n      gt\n        /* \"#utility.yul\":10104:10105   */\n      0x01\n        /* \"#utility.yul\":10099:10717   */\n      dup2\n      eq\n      tag_219\n      jumpi\n        /* \"#utility.yul\":10761:10762   */\n      0x00\n        /* \"#utility.yul\":10778:10784   */\n      dup5\n        /* \"#utility.yul\":10775:10852   */\n      iszero\n      tag_220\n      jumpi\n        /* \"#utility.yul\":10827:10836   */\n      dup3\n        /* \"#utility.yul\":10822:10825   */\n      dup8\n        /* \"#utility.yul\":10818:10837   */\n      add\n        /* \"#utility.yul\":10812:10838   */\n      mload\n        /* \"#utility.yul\":10803:10838   */\n      swap1\n      pop\n        /* \"#utility.yul\":10775:10852   */\n    tag_220:\n        /* \"#utility.yul\":10878:10945   */\n      tag_221\n        /* \"#utility.yul\":10938:10944   */\n      dup6\n        /* \"#utility.yul\":10931:10936   */\n      dup3\n        /* \"#utility.yul\":10878:10945   */\n      tag_96\n      jump\t// in\n    tag_221:\n        /* \"#utility.yul\":10872:10876   */\n      dup7\n        /* \"#utility.yul\":10865:10946   */\n      sstore\n        /* \"#utility.yul\":10734:10956   */\n      pop\n        /* \"#utility.yul\":10069:10956   */\n      jump(tag_218)\n        /* \"#utility.yul\":10099:10717   */\n    tag_219:\n        /* \"#utility.yul\":10151:10155   */\n      0x1f\n        /* \"#utility.yul\":10147:10156   */\n      not\n        /* \"#utility.yul\":10139:10145   */\n      dup5\n        /* \"#utility.yul\":10135:10157   */\n      and\n        /* \"#utility.yul\":10185:10222   */\n      tag_222\n        /* \"#utility.yul\":10217:10221   */\n      dup7\n        /* \"#utility.yul\":10185:10222   */\n      tag_82\n      jump\t// in\n    tag_222:\n        /* \"#utility.yul\":10244:10245   */\n      0x00\n        /* \"#utility.yul\":10258:10466   */\n    tag_223:\n        /* \"#utility.yul\":10272:10279   */\n      dup3\n        /* \"#utility.yul\":10269:10270   */\n      dup2\n        /* \"#utility.yul\":10266:10280   */\n      lt\n        /* \"#utility.yul\":10258:10466   */\n      iszero\n      tag_225\n      jumpi\n        /* \"#utility.yul\":10351:10360   */\n      dup5\n        /* \"#utility.yul\":10346:10349   */\n      dup10\n        /* \"#utility.yul\":10342:10361   */\n      add\n        /* \"#utility.yul\":10336:10362   */\n      mload\n        /* \"#utility.yul\":10328:10334   */\n      dup3\n        /* \"#utility.yul\":10321:10363   */\n      sstore\n        /* \"#utility.yul\":10402:10403   */\n      0x01\n        /* \"#utility.yul\":10394:10400   */\n      dup3\n        /* \"#utility.yul\":10390:10404   */\n      add\n        /* \"#utility.yul\":10380:10404   */\n      swap2\n      pop\n        /* \"#utility.yul\":10449:10451   */\n      0x20\n        /* \"#utility.yul\":10438:10447   */\n      dup6\n        /* \"#utility.yul\":10434:10452   */\n      add\n        /* \"#utility.yul\":10421:10452   */\n      swap5\n      pop\n        /* \"#utility.yul\":10295:10299   */\n      0x20\n        /* \"#utility.yul\":10292:10293   */\n      dup2\n        /* \"#utility.yul\":10288:10300   */\n      add\n        /* \"#utility.yul\":10283:10300   */\n      swap1\n      pop\n        /* \"#utility.yul\":10258:10466   */\n      jump(tag_223)\n    tag_225:\n        /* \"#utility.yul\":10494:10500   */\n      dup7\n        /* \"#utility.yul\":10485:10492   */\n      dup4\n        /* \"#utility.yul\":10482:10501   */\n      lt\n        /* \"#utility.yul\":10479:10658   */\n      iszero\n      tag_226\n      jumpi\n        /* \"#utility.yul\":10552:10561   */\n      dup5\n        /* \"#utility.yul\":10547:10550   */\n      dup10\n        /* \"#utility.yul\":10543:10562   */\n      add\n        /* \"#utility.yul\":10537:10563   */\n      mload\n        /* \"#utility.yul\":10595:10643   */\n      tag_227\n        /* \"#utility.yul\":10637:10641   */\n      0x1f\n        /* \"#utility.yul\":10629:10635   */\n      dup10\n        /* \"#utility.yul\":10625:10642   */\n      and\n        /* \"#utility.yul\":10614:10623   */\n      dup3\n        /* \"#utility.yul\":10595:10643   */\n      tag_95\n      jump\t// in\n    tag_227:\n        /* \"#utility.yul\":10587:10593   */\n      dup4\n        /* \"#utility.yul\":10580:10644   */\n      sstore\n        /* \"#utility.yul\":10502:10658   */\n      pop\n        /* \"#utility.yul\":10479:10658   */\n    tag_226:\n        /* \"#utility.yul\":10704:10705   */\n      0x01\n        /* \"#utility.yul\":10700:10701   */\n      0x02\n        /* \"#utility.yul\":10692:10698   */\n      dup9\n        /* \"#utility.yul\":10688:10702   */\n      mul\n        /* \"#utility.yul\":10684:10706   */\n      add\n        /* \"#utility.yul\":10678:10682   */\n      dup9\n        /* \"#utility.yul\":10671:10707   */\n      sstore\n        /* \"#utility.yul\":10106:10717   */\n      pop\n      pop\n      pop\n        /* \"#utility.yul\":10069:10956   */\n    tag_218:\n      pop\n        /* \"#utility.yul\":9659:10962   */\n      pop\n      pop\n      pop\n        /* \"#utility.yul\":9567:10962   */\n      pop\n      pop\n      jump\t// out\n        /* \"#utility.yul\":10968:11116   */\n    tag_97:\n        /* \"#utility.yul\":11070:11081   */\n      0x00\n        /* \"#utility.yul\":11107:11110   */\n      dup2\n        /* \"#utility.yul\":11092:11110   */\n      swap1\n      pop\n        /* \"#utility.yul\":10968:11116   */\n      swap3\n      swap2\n      pop\n      pop\n      jump\t// out\n        /* \"#utility.yul\":11122:11512   */\n    tag_98:\n        /* \"#utility.yul\":11228:11231   */\n      0x00\n        /* \"#utility.yul\":11256:11295   */\n      tag_230\n        /* \"#utility.yul\":11289:11294   */\n      dup3\n        /* \"#utility.yul\":11256:11295   */\n      tag_77\n      jump\t// in\n    tag_230:\n        /* \"#utility.yul\":11311:11400   */\n      tag_231\n        /* \"#utility.yul\":11393:11399   */\n      dup2\n        /* \"#utility.yul\":11388:11391   */\n      dup6\n        /* \"#utility.yul\":11311:11400   */\n      tag_97\n      jump\t// in\n    tag_231:\n        /* \"#utility.yul\":11304:11400   */\n      swap4\n      pop\n        /* \"#utility.yul\":11409:11474   */\n      tag_232\n        /* \"#utility.yul\":11467:11473   */\n      dup2\n        /* \"#utility.yul\":11462:11465   */\n      dup6\n        /* \"#utility.yul\":11455:11459   */\n      0x20\n        /* \"#utility.yul\":11448:11453   */\n      dup7\n        /* \"#utility.yul\":11444:11460   */\n      add\n        /* \"#utility.yul\":11409:11474   */\n      tag_79\n      jump\t// in\n    tag_232:\n        /* \"#utility.yul\":11499:11505   */\n      dup1\n        /* \"#utility.yul\":11494:11497   */\n      dup5\n        /* \"#utility.yul\":11490:11506   */\n      add\n        /* \"#utility.yul\":11483:11506   */\n      swap2\n      pop\n        /* \"#utility.yul\":11232:11512   */\n      pop\n        /* \"#utility.yul\":11122:11512   */\n      swap3\n      swap2\n      pop\n      pop\n      jump\t// out\n        /* \"#utility.yul\":11518:11793   */\n    tag_45:\n        /* \"#utility.yul\":11650:11653   */\n      0x00\n        /* \"#utility.yul\":11672:11767   */\n      tag_234\n        /* \"#utility.yul\":11763:11766   */\n      dup3\n        /* \"#utility.yul\":11754:11760   */\n      dup5\n        /* \"#utility.yul\":11672:11767   */\n      tag_98\n      jump\t// in\n    tag_234:\n        /* \"#utility.yul\":11665:11767   */\n      swap2\n      pop\n        /* \"#utility.yul\":11784:11787   */\n      dup2\n        /* \"#utility.yul\":11777:11787   */\n      swap1\n      pop\n        /* \"#utility.yul\":11518:11793   */\n      swap3\n      swap2\n      pop\n      pop\n      jump\t// out\n\n    auxdata: 0xa26469706673582212205503f20bde71ae7f60405d421e39e6c63d9e4370159298116f21a37f2db2b8ee64736f6c63430008180033\n}\n",
				"bytecode": {
					"linkReferences": {},
					"object": "608060405260196001556040518060400160405280606181526020016040518060400160405280600181526020017f470000000000000000000000000000000000000000000000000000000000000081525081525060025f820151815f01556020820151816001019081620000759190620002ef565b50505034801562000084575f80fd5b50620003d3565b5f81519050919050565b7f4e487b71000000000000000000000000000000000000000000000000000000005f52604160045260245ffd5b7f4e487b71000000000000000000000000000000000000000000000000000000005f52602260045260245ffd5b5f60028204905060018216806200010757607f821691505b6020821081036200011d576200011c620000c2565b5b50919050565b5f819050815f5260205f209050919050565b5f6020601f8301049050919050565b5f82821b905092915050565b5f60088302620001817fffffffffffffffffffffffffffffffffffffffffffffffffffffffffffffffff8262000144565b6200018d868362000144565b95508019841693508086168417925050509392505050565b5f819050919050565b5f819050919050565b5f620001d7620001d1620001cb84620001a5565b620001ae565b620001a5565b9050919050565b5f819050919050565b620001f283620001b7565b6200020a6200020182620001de565b84845462000150565b825550505050565b5f90565b6200022062000212565b6200022d818484620001e7565b505050565b5b818110156200025457620002485f8262000216565b60018101905062000233565b5050565b601f821115620002a3576200026d8162000123565b620002788462000135565b8101602085101562000288578190505b620002a0620002978562000135565b83018262000232565b50505b505050565b5f82821c905092915050565b5f620002c55f1984600802620002a8565b1980831691505092915050565b5f620002df8383620002b4565b9150826002028217905092915050565b620002fa826200008b565b67ffffffffffffffff81111562000316576200031562000095565b5b620003228254620000ef565b6200032f82828562000258565b5f60209050601f83116001811462000365575f841562000350578287015190505b6200035c8582620002d2565b865550620003cb565b601f198416620003758662000123565b5f5b828110156200039e5784890151825560018201915060208501945060208101905062000377565b86831015620003be5784890151620003ba601f891682620002b4565b8355505b6001600288020188555050505b505050505050565b6109f480620003e15f395ff3fe608060405234801561000f575f80fd5b506004361061007b575f3560e01c806346cb59c21161005957806346cb59c2146100e95780636057361d14610108578063c7fb346814610124578063daa17951146101555761007b565b80632e64cec11461007f5780632fae4ffd1461009d5780633fbd5bf0146100cd575b5f80fd5b610087610173565b60405161009491906103a1565b60405180910390f35b6100b760048036038101906100b29190610507565b61017c565b6040516100c491906103a1565b60405180910390f35b6100e760048036038101906100e29190610578565b6101a9565b005b6100f161022d565b6040516100ff92919061064c565b60405180910390f35b610122600480360381019061011d919061067a565b6102c4565b005b61013e6004803603810190610139919061067a565b6102ce565b60405161014c92919061064c565b60405180910390f35b61015d610383565b60405161016a91906103a1565b60405180910390f35b5f600154905090565b6005818051602081018201805184825260208301602085012081835280955050505050505f915090505481565b6004604051806040016040528083815260200184815250908060018154018082558091505060019003905f5260205f2090600202015f909190919091505f820151815f01556020820151816001019081610203919061089f565b5050508060058360405161021791906109a8565b9081526020016040518091039020819055505050565b6002805f015490806001018054610243906106d2565b80601f016020809104026020016040519081016040528092919081815260200182805461026f906106d2565b80156102ba5780601f10610291576101008083540402835291602001916102ba565b820191905f5260205f20905b81548152906001019060200180831161029d57829003601f168201915b5050505050905082565b8060018190555050565b600481815481106102dd575f80fd5b905f5260205f2090600202015f91509050805f015490806001018054610302906106d2565b80601f016020809104026020016040519081016040528092919081815260200182805461032e906106d2565b80156103795780601f1061035057610100808354040283529160200191610379565b820191905f5260205f20905b81548152906001019060200180831161035c57829003601f168201915b5050505050905082565b60015481565b5f819050919050565b61039b81610389565b82525050565b5f6020820190506103b45f830184610392565b92915050565b5f604051905090565b5f80fd5b5f80fd5b5f80fd5b5f80fd5b5f601f19601f8301169050919050565b7f4e487b71000000000000000000000000000000000000000000000000000000005f52604160045260245ffd5b610419826103d3565b810181811067ffffffffffffffff82111715610438576104376103e3565b5b80604052505050565b5f61044a6103ba565b90506104568282610410565b919050565b5f67ffffffffffffffff821115610475576104746103e3565b5b61047e826103d3565b9050602081019050919050565b828183375f83830152505050565b5f6104ab6104a68461045b565b610441565b9050828152602081018484840111156104c7576104c66103cf565b5b6104d284828561048b565b509392505050565b5f82601f8301126104ee576104ed6103cb565b5b81356104fe848260208601610499565b91505092915050565b5f6020828403121561051c5761051b6103c3565b5b5f82013567ffffffffffffffff811115610539576105386103c7565b5b610545848285016104da565b91505092915050565b61055781610389565b8114610561575f80fd5b50565b5f813590506105728161054e565b92915050565b5f806040838503121561058e5761058d6103c3565b5b5f83013567ffffffffffffffff8111156105ab576105aa6103c7565b5b6105b7858286016104da565b92505060206105c885828601610564565b9150509250929050565b5f81519050919050565b5f82825260208201905092915050565b5f5b838110156106095780820151818401526020810190506105ee565b5f8484015250505050565b5f61061e826105d2565b61062881856105dc565b93506106388185602086016105ec565b610641816103d3565b840191505092915050565b5f60408201905061065f5f830185610392565b81810360208301526106718184610614565b90509392505050565b5f6020828403121561068f5761068e6103c3565b5b5f61069c84828501610564565b91505092915050565b7f4e487b71000000000000000000000000000000000000000000000000000000005f52602260045260245ffd5b5f60028204905060018216806106e957607f821691505b6020821081036106fc576106fb6106a5565b5b50919050565b5f819050815f5260205f209050919050565b5f6020601f8301049050919050565b5f82821b905092915050565b5f6008830261075e7fffffffffffffffffffffffffffffffffffffffffffffffffffffffffffffffff82610723565b6107688683610723565b95508019841693508086168417925050509392505050565b5f819050919050565b5f6107a361079e61079984610389565b610780565b610389565b9050919050565b5f819050919050565b6107bc83610789565b6107d06107c8826107aa565b84845461072f565b825550505050565b5f90565b6107e46107d8565b6107ef8184846107b3565b505050565b5b81811015610812576108075f826107dc565b6001810190506107f5565b5050565b601f8211156108575761082881610702565b61083184610714565b81016020851015610840578190505b61085461084c85610714565b8301826107f4565b50505b505050565b5f82821c905092915050565b5f6108775f198460080261085c565b1980831691505092915050565b5f61088f8383610868565b9150826002028217905092915050565b6108a8826105d2565b67ffffffffffffffff8111156108c1576108c06103e3565b5b6108cb82546106d2565b6108d6828285610816565b5f60209050601f831160018114610907575f84156108f5578287015190505b6108ff8582610884565b865550610966565b601f19841661091586610702565b5f5b8281101561093c57848901518255600182019150602085019450602081019050610917565b868310156109595784890151610955601f891682610868565b8355505b6001600288020188555050505b505050505050565b5f81905092915050565b5f610982826105d2565b61098c818561096e565b935061099c8185602086016105ec565b80840191505092915050565b5f6109b38284610978565b91508190509291505056fea26469706673582212205503f20bde71ae7f60405d421e39e6c63d9e4370159298116f21a37f2db2b8ee64736f6c63430008180033",
					"opcodes": "PUSH1 0x80 PUSH1 0x40 MSTORE PUSH1 0x19 PUSH1 0x1 SSTORE PUSH1 0x40 MLOAD DUP1 PUSH1 0x40 ADD PUSH1 0x40 MSTORE DUP1 PUSH1 0x61 DUP2 MSTORE PUSH1 0x20 ADD PUSH1 0x40 MLOAD DUP1 PUSH1 0x40 ADD PUSH1 0x40 MSTORE DUP1 PUSH1 0x1 DUP2 MSTORE PUSH1 0x20 ADD PUSH32 0x4700000000000000000000000000000000000000000000000000000000000000 DUP2 MSTORE POP DUP2 MSTORE POP PUSH1 0x2 PUSH0 DUP3 ADD MLOAD DUP2 PUSH0 ADD SSTORE PUSH1 0x20 DUP3 ADD MLOAD DUP2 PUSH1 0x1 ADD SWAP1 DUP2 PUSH3 0x75 SWAP2 SWAP1 PUSH3 0x2EF JUMP JUMPDEST POP POP POP CALLVALUE DUP1 ISZERO PUSH3 0x84 JUMPI PUSH0 DUP1 REVERT JUMPDEST POP PUSH3 0x3D3 JUMP JUMPDEST PUSH0 DUP2 MLOAD SWAP1 POP SWAP2 SWAP1 POP JUMP JUMPDEST PUSH32 0x4E487B7100000000000000000000000000000000000000000000000000000000 PUSH0 MSTORE PUSH1 0x41 PUSH1 0x4 MSTORE PUSH1 0x24 PUSH0 REVERT JUMPDEST PUSH32 0x4E487B7100000000000000000000000000000000000000000000000000000000 PUSH0 MSTORE PUSH1 0x22 PUSH1 0x4 MSTORE PUSH1 0x24 PUSH0 REVERT JUMPDEST PUSH0 PUSH1 0x2 DUP3 DIV SWAP1 POP PUSH1 0x1 DUP3 AND DUP1 PUSH3 0x107 JUMPI PUSH1 0x7F DUP3 AND SWAP2 POP JUMPDEST PUSH1 0x20 DUP3 LT DUP2 SUB PUSH3 0x11D JUMPI PUSH3 0x11C PUSH3 0xC2 JUMP JUMPDEST JUMPDEST POP SWAP2 SWAP1 POP JUMP JUMPDEST PUSH0 DUP2 SWAP1 POP DUP2 PUSH0 MSTORE PUSH1 0x20 PUSH0 KECCAK256 SWAP1 POP SWAP2 SWAP1 POP JUMP JUMPDEST PUSH0 PUSH1 0x20 PUSH1 0x1F DUP4 ADD DIV SWAP1 POP SWAP2 SWAP1 POP JUMP JUMPDEST PUSH0 DUP3 DUP3 SHL SWAP1 POP SWAP3 SWAP2 POP POP JUMP JUMPDEST PUSH0 PUSH1 0x8 DUP4 MUL PUSH3 0x181 PUSH32 0xFFFFFFFFFFFFFFFFFFFFFFFFFFFFFFFFFFFFFFFFFFFFFFFFFFFFFFFFFFFFFFFF DUP3 PUSH3 0x144 JUMP JUMPDEST PUSH3 0x18D DUP7 DUP4 PUSH3 0x144 JUMP JUMPDEST SWAP6 POP DUP1 NOT DUP5 AND SWAP4 POP DUP1 DUP7 AND DUP5 OR SWAP3 POP POP POP SWAP4 SWAP3 POP POP POP JUMP JUMPDEST PUSH0 DUP2 SWAP1 POP SWAP2 SWAP1 POP JUMP JUMPDEST PUSH0 DUP2 SWAP1 POP SWAP2 SWAP1 POP JUMP JUMPDEST PUSH0 PUSH3 0x1D7 PUSH3 0x1D1 PUSH3 0x1CB DUP5 PUSH3 0x1A5 JUMP JUMPDEST PUSH3 0x1AE JUMP JUMPDEST PUSH3 0x1A5 JUMP JUMPDEST SWAP1 POP SWAP2 SWAP1 POP JUMP JUMPDEST PUSH0 DUP2 SWAP1 POP SWAP2 SWAP1 POP JUMP JUMPDEST PUSH3 0x1F2 DUP4 PUSH3 0x1B7 JUMP JUMPDEST PUSH3 0x20A PUSH3 0x201 DUP3 PUSH3 0x1DE JUMP JUMPDEST DUP5 DUP5 SLOAD PUSH3 0x150 JUMP JUMPDEST DUP3 SSTORE POP POP POP POP JUMP JUMPDEST PUSH0 SWAP1 JUMP JUMPDEST PUSH3 0x220 PUSH3 0x212 JUMP JUMPDEST PUSH3 0x22D DUP2 DUP5 DUP5 PUSH3 0x1E7 JUMP JUMPDEST POP POP POP JUMP JUMPDEST JUMPDEST DUP2 DUP2 LT ISZERO PUSH3 0x254 JUMPI PUSH3 0x248 PUSH0 DUP3 PUSH3 0x216 JUMP JUMPDEST PUSH1 0x1 DUP2 ADD SWAP1 POP PUSH3 0x233 JUMP JUMPDEST POP POP JUMP JUMPDEST PUSH1 0x1F DUP3 GT ISZERO PUSH3 0x2A3 JUMPI PUSH3 0x26D DUP2 PUSH3 0x123 JUMP JUMPDEST PUSH3 0x278 DUP5 PUSH3 0x135 JUMP JUMPDEST DUP2 ADD PUSH1 0x20 DUP6 LT ISZERO PUSH3 0x288 JUMPI DUP2 SWAP1 POP JUMPDEST PUSH3 0x2A0 PUSH3 0x297 DUP6 PUSH3 0x135 JUMP JUMPDEST DUP4 ADD DUP3 PUSH3 0x232 JUMP JUMPDEST POP POP JUMPDEST POP POP POP JUMP JUMPDEST PUSH0 DUP3 DUP3 SHR SWAP1 POP SWAP3 SWAP2 POP POP JUMP JUMPDEST PUSH0 PUSH3 0x2C5 PUSH0 NOT DUP5 PUSH1 0x8 MUL PUSH3 0x2A8 JUMP JUMPDEST NOT DUP1 DUP4 AND SWAP2 POP POP SWAP3 SWAP2 POP POP JUMP JUMPDEST PUSH0 PUSH3 0x2DF DUP4 DUP4 PUSH3 0x2B4 JUMP JUMPDEST SWAP2 POP DUP3 PUSH1 0x2 MUL DUP3 OR SWAP1 POP SWAP3 SWAP2 POP POP JUMP JUMPDEST PUSH3 0x2FA DUP3 PUSH3 0x8B JUMP JUMPDEST PUSH8 0xFFFFFFFFFFFFFFFF DUP2 GT ISZERO PUSH3 0x316 JUMPI PUSH3 0x315 PUSH3 0x95 JUMP JUMPDEST JUMPDEST PUSH3 0x322 DUP3 SLOAD PUSH3 0xEF JUMP JUMPDEST PUSH3 0x32F DUP3 DUP3 DUP6 PUSH3 0x258 JUMP JUMPDEST PUSH0 PUSH1 0x20 SWAP1 POP PUSH1 0x1F DUP4 GT PUSH1 0x1 DUP2 EQ PUSH3 0x365 JUMPI PUSH0 DUP5 ISZERO PUSH3 0x350 JUMPI DUP3 DUP8 ADD MLOAD SWAP1 POP JUMPDEST PUSH3 0x35C DUP6 DUP3 PUSH3 0x2D2 JUMP JUMPDEST DUP7 SSTORE POP PUSH3 0x3CB JUMP JUMPDEST PUSH1 0x1F NOT DUP5 AND PUSH3 0x375 DUP7 PUSH3 0x123 JUMP JUMPDEST PUSH0 JUMPDEST DUP3 DUP2 LT ISZERO PUSH3 0x39E JUMPI DUP5 DUP10 ADD MLOAD DUP3 SSTORE PUSH1 0x1 DUP3 ADD SWAP2 POP PUSH1 0x20 DUP6 ADD SWAP5 POP PUSH1 0x20 DUP2 ADD SWAP1 POP PUSH3 0x377 JUMP JUMPDEST DUP7 DUP4 LT ISZERO PUSH3 0x3BE JUMPI DUP5 DUP10 ADD MLOAD PUSH3 0x3BA PUSH1 0x1F DUP10 AND DUP3 PUSH3 0x2B4 JUMP JUMPDEST DUP4 SSTORE POP JUMPDEST PUSH1 0x1 PUSH1 0x2 DUP9 MUL ADD DUP9 SSTORE POP POP POP JUMPDEST POP POP POP POP POP POP JUMP JUMPDEST PUSH2 0x9F4 DUP1 PUSH3 0x3E1 PUSH0 CODECOPY PUSH0 RETURN INVALID PUSH1 0x80 PUSH1 0x40 MSTORE CALLVALUE DUP1 ISZERO PUSH2 0xF JUMPI PUSH0 DUP1 REVERT JUMPDEST POP PUSH1 0x4 CALLDATASIZE LT PUSH2 0x7B JUMPI PUSH0 CALLDATALOAD PUSH1 0xE0 SHR DUP1 PUSH4 0x46CB59C2 GT PUSH2 0x59 JUMPI DUP1 PUSH4 0x46CB59C2 EQ PUSH2 0xE9 JUMPI DUP1 PUSH4 0x6057361D EQ PUSH2 0x108 JUMPI DUP1 PUSH4 0xC7FB3468 EQ PUSH2 0x124 JUMPI DUP1 PUSH4 0xDAA17951 EQ PUSH2 0x155 JUMPI PUSH2 0x7B JUMP JUMPDEST DUP1 PUSH4 0x2E64CEC1 EQ PUSH2 0x7F JUMPI DUP1 PUSH4 0x2FAE4FFD EQ PUSH2 0x9D JUMPI DUP1 PUSH4 0x3FBD5BF0 EQ PUSH2 0xCD JUMPI JUMPDEST PUSH0 DUP1 REVERT JUMPDEST PUSH2 0x87 PUSH2 0x173 JUMP JUMPDEST PUSH1 0x40 MLOAD PUSH2 0x94 SWAP2 SWAP1 PUSH2 0x3A1 JUMP JUMPDEST PUSH1 0x40 MLOAD DUP1 SWAP2 SUB SWAP1 RETURN JUMPDEST PUSH2 0xB7 PUSH1 0x4 DUP1 CALLDATASIZE SUB DUP2 ADD SWAP1 PUSH2 0xB2 SWAP2 SWAP1 PUSH2 0x507 JUMP JUMPDEST PUSH2 0x17C JUMP JUMPDEST PUSH1 0x40 MLOAD PUSH2 0xC4 SWAP2 SWAP1 PUSH2 0x3A1 JUMP JUMPDEST PUSH1 0x40 MLOAD DUP1 SWAP2 SUB SWAP1 RETURN JUMPDEST PUSH2 0xE7 PUSH1 0x4 DUP1 CALLDATASIZE SUB DUP2 ADD SWAP1 PUSH2 0xE2 SWAP2 SWAP1 PUSH2 0x578 JUMP JUMPDEST PUSH2 0x1A9 JUMP JUMPDEST STOP JUMPDEST PUSH2 0xF1 PUSH2 0x22D JUMP JUMPDEST PUSH1 0x40 MLOAD PUSH2 0xFF SWAP3 SWAP2 SWAP1 PUSH2 0x64C JUMP JUMPDEST PUSH1 0x40 MLOAD DUP1 SWAP2 SUB SWAP1 RETURN JUMPDEST PUSH2 0x122 PUSH1 0x4 DUP1 CALLDATASIZE SUB DUP2 ADD SWAP1 PUSH2 0x11D SWAP2 SWAP1 PUSH2 0x67A JUMP JUMPDEST PUSH2 0x2C4 JUMP JUMPDEST STOP JUMPDEST PUSH2 0x13E PUSH1 0x4 DUP1 CALLDATASIZE SUB DUP2 ADD SWAP1 PUSH2 0x139 SWAP2 SWAP1 PUSH2 0x67A JUMP JUMPDEST PUSH2 0x2CE JUMP JUMPDEST PUSH1 0x40 MLOAD PUSH2 0x14C SWAP3 SWAP2 SWAP1 PUSH2 0x64C JUMP JUMPDEST PUSH1 0x40 MLOAD DUP1 SWAP2 SUB SWAP1 RETURN JUMPDEST PUSH2 0x15D PUSH2 0x383 JUMP JUMPDEST PUSH1 0x40 MLOAD PUSH2 0x16A SWAP2 SWAP1 PUSH2 0x3A1 JUMP JUMPDEST PUSH1 0x40 MLOAD DUP1 SWAP2 SUB SWAP1 RETURN JUMPDEST PUSH0 PUSH1 0x1 SLOAD SWAP1 POP SWAP1 JUMP JUMPDEST PUSH1 0x5 DUP2 DUP1 MLOAD PUSH1 0x20 DUP2 ADD DUP3 ADD DUP1 MLOAD DUP5 DUP3 MSTORE PUSH1 0x20 DUP4 ADD PUSH1 0x20 DUP6 ADD KECCAK256 DUP2 DUP4 MSTORE DUP1 SWAP6 POP POP POP POP POP POP PUSH0 SWAP2 POP SWAP1 POP SLOAD DUP2 JUMP JUMPDEST PUSH1 0x4 PUSH1 0x40 MLOAD DUP1 PUSH1 0x40 ADD PUSH1 0x40 MSTORE DUP1 DUP4 DUP2 MSTORE PUSH1 0x20 ADD DUP5 DUP2 MSTORE POP SWAP1 DUP1 PUSH1 0x1 DUP2 SLOAD ADD DUP1 DUP3 SSTORE DUP1 SWAP2 POP POP PUSH1 0x1 SWAP1 SUB SWAP1 PUSH0 MSTORE PUSH1 0x20 PUSH0 KECCAK256 SWAP1 PUSH1 0x2 MUL ADD PUSH0 SWAP1 SWAP2 SWAP1 SWAP2 SWAP1 SWAP2 POP PUSH0 DUP3 ADD MLOAD DUP2 PUSH0 ADD SSTORE PUSH1 0x20 DUP3 ADD MLOAD DUP2 PUSH1 0x1 ADD SWAP1 DUP2 PUSH2 0x203 SWAP2 SWAP1 PUSH2 0x89F JUMP JUMPDEST POP POP POP DUP1 PUSH1 0x5 DUP4 PUSH1 0x40 MLOAD PUSH2 0x217 SWAP2 SWAP1 PUSH2 0x9A8 JUMP JUMPDEST SWAP1 DUP2 MSTORE PUSH1 0x20 ADD PUSH1 0x40 MLOAD DUP1 SWAP2 SUB SWAP1 KECCAK256 DUP2 SWAP1 SSTORE POP POP POP JUMP JUMPDEST PUSH1 0x2 DUP1 PUSH0 ADD SLOAD SWAP1 DUP1 PUSH1 0x1 ADD DUP1 SLOAD PUSH2 0x243 SWAP1 PUSH2 0x6D2 JUMP JUMPDEST DUP1 PUSH1 0x1F ADD PUSH1 0x20 DUP1 SWAP2 DIV MUL PUSH1 0x20 ADD PUSH1 0x40 MLOAD SWAP1 DUP2 ADD PUSH1 0x40 MSTORE DUP1 SWAP3 SWAP2 SWAP1 DUP2 DUP2 MSTORE PUSH1 0x20 ADD DUP3 DUP1 SLOAD PUSH2 0x26F SWAP1 PUSH2 0x6D2 JUMP JUMPDEST DUP1 ISZERO PUSH2 0x2BA JUMPI DUP1 PUSH1 0x1F LT PUSH2 0x291 JUMPI PUSH2 0x100 DUP1 DUP4 SLOAD DIV MUL DUP4 MSTORE SWAP2 PUSH1 0x20 ADD SWAP2 PUSH2 0x2BA JUMP JUMPDEST DUP3 ADD SWAP2 SWAP1 PUSH0 MSTORE PUSH1 0x20 PUSH0 KECCAK256 SWAP1 JUMPDEST DUP2 SLOAD DUP2 MSTORE SWAP1 PUSH1 0x1 ADD SWAP1 PUSH1 0x20 ADD DUP1 DUP4 GT PUSH2 0x29D JUMPI DUP3 SWAP1 SUB PUSH1 0x1F AND DUP3 ADD SWAP2 JUMPDEST POP POP POP POP POP SWAP1 POP DUP3 JUMP JUMPDEST DUP1 PUSH1 0x1 DUP2 SWAP1 SSTORE POP POP JUMP JUMPDEST PUSH1 0x4 DUP2 DUP2 SLOAD DUP2 LT PUSH2 0x2DD JUMPI PUSH0 DUP1 REVERT JUMPDEST SWAP1 PUSH0 MSTORE PUSH1 0x20 PUSH0 KECCAK256 SWAP1 PUSH1 0x2 MUL ADD PUSH0 SWAP2 POP SWAP1 POP DUP1 PUSH0 ADD SLOAD SWAP1 DUP1 PUSH1 0x1 ADD DUP1 SLOAD PUSH2 0x302 SWAP1 PUSH2 0x6D2 JUMP JUMPDEST DUP1 PUSH1 0x1F ADD PUSH1 0x20 DUP1 SWAP2 DIV MUL PUSH1 0x20 ADD PUSH1 0x40 MLOAD SWAP1 DUP2 ADD PUSH1 0x40 MSTORE DUP1 SWAP3 SWAP2 SWAP1 DUP2 DUP2 MSTORE PUSH1 0x20 ADD DUP3 DUP1 SLOAD PUSH2 0x32E SWAP1 PUSH2 0x6D2 JUMP JUMPDEST DUP1 ISZERO PUSH2 0x379 JUMPI DUP1 PUSH1 0x1F LT PUSH2 0x350 JUMPI PUSH2 0x100 DUP1 DUP4 SLOAD DIV MUL DUP4 MSTORE SWAP2 PUSH1 0x20 ADD SWAP2 PUSH2 0x379 JUMP JUMPDEST DUP3 ADD SWAP2 SWAP1 PUSH0 MSTORE PUSH1 0x20 PUSH0 KECCAK256 SWAP1 JUMPDEST DUP2 SLOAD DUP2 MSTORE SWAP1 PUSH1 0x1 ADD SWAP1 PUSH1 0x20 ADD DUP1 DUP4 GT PUSH2 0x35C JUMPI DUP3 SWAP1 SUB PUSH1 0x1F AND DUP3 ADD SWAP2 JUMPDEST POP POP POP POP POP SWAP1 POP DUP3 JUMP JUMPDEST PUSH1 0x1 SLOAD DUP2 JUMP JUMPDEST PUSH0 DUP2 SWAP1 POP SWAP2 SWAP1 POP JUMP JUMPDEST PUSH2 0x39B DUP2 PUSH2 0x389 JUMP JUMPDEST DUP3 MSTORE POP POP JUMP JUMPDEST PUSH0 PUSH1 0x20 DUP3 ADD SWAP1 POP PUSH2 0x3B4 PUSH0 DUP4 ADD DUP5 PUSH2 0x392 JUMP JUMPDEST SWAP3 SWAP2 POP POP JUMP JUMPDEST PUSH0 PUSH1 0x40 MLOAD SWAP1 POP SWAP1 JUMP JUMPDEST PUSH0 DUP1 REVERT JUMPDEST PUSH0 DUP1 REVERT JUMPDEST PUSH0 DUP1 REVERT JUMPDEST PUSH0 DUP1 REVERT JUMPDEST PUSH0 PUSH1 0x1F NOT PUSH1 0x1F DUP4 ADD AND SWAP1 POP SWAP2 SWAP1 POP JUMP JUMPDEST PUSH32 0x4E487B7100000000000000000000000000000000000000000000000000000000 PUSH0 MSTORE PUSH1 0x41 PUSH1 0x4 MSTORE PUSH1 0x24 PUSH0 REVERT JUMPDEST PUSH2 0x419 DUP3 PUSH2 0x3D3 JUMP JUMPDEST DUP2 ADD DUP2 DUP2 LT PUSH8 0xFFFFFFFFFFFFFFFF DUP3 GT OR ISZERO PUSH2 0x438 JUMPI PUSH2 0x437 PUSH2 0x3E3 JUMP JUMPDEST JUMPDEST DUP1 PUSH1 0x40 MSTORE POP POP POP JUMP JUMPDEST PUSH0 PUSH2 0x44A PUSH2 0x3BA JUMP JUMPDEST SWAP1 POP PUSH2 0x456 DUP3 DUP3 PUSH2 0x410 JUMP JUMPDEST SWAP2 SWAP1 POP JUMP JUMPDEST PUSH0 PUSH8 0xFFFFFFFFFFFFFFFF DUP3 GT ISZERO PUSH2 0x475 JUMPI PUSH2 0x474 PUSH2 0x3E3 JUMP JUMPDEST JUMPDEST PUSH2 0x47E DUP3 PUSH2 0x3D3 JUMP JUMPDEST SWAP1 POP PUSH1 0x20 DUP2 ADD SWAP1 POP SWAP2 SWAP1 POP JUMP JUMPDEST DUP3 DUP2 DUP4 CALLDATACOPY PUSH0 DUP4 DUP4 ADD MSTORE POP POP POP JUMP JUMPDEST PUSH0 PUSH2 0x4AB PUSH2 0x4A6 DUP5 PUSH2 0x45B JUMP JUMPDEST PUSH2 0x441 JUMP JUMPDEST SWAP1 POP DUP3 DUP2 MSTORE PUSH1 0x20 DUP2 ADD DUP5 DUP5 DUP5 ADD GT ISZERO PUSH2 0x4C7 JUMPI PUSH2 0x4C6 PUSH2 0x3CF JUMP JUMPDEST JUMPDEST PUSH2 0x4D2 DUP5 DUP3 DUP6 PUSH2 0x48B JUMP JUMPDEST POP SWAP4 SWAP3 POP POP POP JUMP JUMPDEST PUSH0 DUP3 PUSH1 0x1F DUP4 ADD SLT PUSH2 0x4EE JUMPI PUSH2 0x4ED PUSH2 0x3CB JUMP JUMPDEST JUMPDEST DUP2 CALLDATALOAD PUSH2 0x4FE DUP5 DUP3 PUSH1 0x20 DUP7 ADD PUSH2 0x499 JUMP JUMPDEST SWAP2 POP POP SWAP3 SWAP2 POP POP JUMP JUMPDEST PUSH0 PUSH1 0x20 DUP3 DUP5 SUB SLT ISZERO PUSH2 0x51C JUMPI PUSH2 0x51B PUSH2 0x3C3 JUMP JUMPDEST JUMPDEST PUSH0 DUP3 ADD CALLDATALOAD PUSH8 0xFFFFFFFFFFFFFFFF DUP2 GT ISZERO PUSH2 0x539 JUMPI PUSH2 0x538 PUSH2 0x3C7 JUMP JUMPDEST JUMPDEST PUSH2 0x545 DUP5 DUP3 DUP6 ADD PUSH2 0x4DA JUMP JUMPDEST SWAP2 POP POP SWAP3 SWAP2 POP POP JUMP JUMPDEST PUSH2 0x557 DUP2 PUSH2 0x389 JUMP JUMPDEST DUP2 EQ PUSH2 0x561 JUMPI PUSH0 DUP1 REVERT JUMPDEST POP JUMP JUMPDEST PUSH0 DUP2 CALLDATALOAD SWAP1 POP PUSH2 0x572 DUP2 PUSH2 0x54E JUMP JUMPDEST SWAP3 SWAP2 POP POP JUMP JUMPDEST PUSH0 DUP1 PUSH1 0x40 DUP4 DUP6 SUB SLT ISZERO PUSH2 0x58E JUMPI PUSH2 0x58D PUSH2 0x3C3 JUMP JUMPDEST JUMPDEST PUSH0 DUP4 ADD CALLDATALOAD PUSH8 0xFFFFFFFFFFFFFFFF DUP2 GT ISZERO PUSH2 0x5AB JUMPI PUSH2 0x5AA PUSH2 0x3C7 JUMP JUMPDEST JUMPDEST PUSH2 0x5B7 DUP6 DUP3 DUP7 ADD PUSH2 0x4DA JUMP JUMPDEST SWAP3 POP POP PUSH1 0x20 PUSH2 0x5C8 DUP6 DUP3 DUP7 ADD PUSH2 0x564 JUMP JUMPDEST SWAP2 POP POP SWAP3 POP SWAP3 SWAP1 POP JUMP JUMPDEST PUSH0 DUP2 MLOAD SWAP1 POP SWAP2 SWAP1 POP JUMP JUMPDEST PUSH0 DUP3 DUP3 MSTORE PUSH1 0x20 DUP3 ADD SWAP1 POP SWAP3 SWAP2 POP POP JUMP JUMPDEST PUSH0 JUMPDEST DUP4 DUP2 LT ISZERO PUSH2 0x609 JUMPI DUP1 DUP3 ADD MLOAD DUP2 DUP5 ADD MSTORE PUSH1 0x20 DUP2 ADD SWAP1 POP PUSH2 0x5EE JUMP JUMPDEST PUSH0 DUP5 DUP5 ADD MSTORE POP POP POP POP JUMP JUMPDEST PUSH0 PUSH2 0x61E DUP3 PUSH2 0x5D2 JUMP JUMPDEST PUSH2 0x628 DUP2 DUP6 PUSH2 0x5DC JUMP JUMPDEST SWAP4 POP PUSH2 0x638 DUP2 DUP6 PUSH1 0x20 DUP7 ADD PUSH2 0x5EC JUMP JUMPDEST PUSH2 0x641 DUP2 PUSH2 0x3D3 JUMP JUMPDEST DUP5 ADD SWAP2 POP POP SWAP3 SWAP2 POP POP JUMP JUMPDEST PUSH0 PUSH1 0x40 DUP3 ADD SWAP1 POP PUSH2 0x65F PUSH0 DUP4 ADD DUP6 PUSH2 0x392 JUMP JUMPDEST DUP2 DUP2 SUB PUSH1 0x20 DUP4 ADD MSTORE PUSH2 0x671 DUP2 DUP5 PUSH2 0x614 JUMP JUMPDEST SWAP1 POP SWAP4 SWAP3 POP POP POP JUMP JUMPDEST PUSH0 PUSH1 0x20 DUP3 DUP5 SUB SLT ISZERO PUSH2 0x68F JUMPI PUSH2 0x68E PUSH2 0x3C3 JUMP JUMPDEST JUMPDEST PUSH0 PUSH2 0x69C DUP5 DUP3 DUP6 ADD PUSH2 0x564 JUMP JUMPDEST SWAP2 POP POP SWAP3 SWAP2 POP POP JUMP JUMPDEST PUSH32 0x4E487B7100000000000000000000000000000000000000000000000000000000 PUSH0 MSTORE PUSH1 0x22 PUSH1 0x4 MSTORE PUSH1 0x24 PUSH0 REVERT JUMPDEST PUSH0 PUSH1 0x2 DUP3 DIV SWAP1 POP PUSH1 0x1 DUP3 AND DUP1 PUSH2 0x6E9 JUMPI PUSH1 0x7F DUP3 AND SWAP2 POP JUMPDEST PUSH1 0x20 DUP3 LT DUP2 SUB PUSH2 0x6FC JUMPI PUSH2 0x6FB PUSH2 0x6A5 JUMP JUMPDEST JUMPDEST POP SWAP2 SWAP1 POP JUMP JUMPDEST PUSH0 DUP2 SWAP1 POP DUP2 PUSH0 MSTORE PUSH1 0x20 PUSH0 KECCAK256 SWAP1 POP SWAP2 SWAP1 POP JUMP JUMPDEST PUSH0 PUSH1 0x20 PUSH1 0x1F DUP4 ADD DIV SWAP1 POP SWAP2 SWAP1 POP JUMP JUMPDEST PUSH0 DUP3 DUP3 SHL SWAP1 POP SWAP3 SWAP2 POP POP JUMP JUMPDEST PUSH0 PUSH1 0x8 DUP4 MUL PUSH2 0x75E PUSH32 0xFFFFFFFFFFFFFFFFFFFFFFFFFFFFFFFFFFFFFFFFFFFFFFFFFFFFFFFFFFFFFFFF DUP3 PUSH2 0x723 JUMP JUMPDEST PUSH2 0x768 DUP7 DUP4 PUSH2 0x723 JUMP JUMPDEST SWAP6 POP DUP1 NOT DUP5 AND SWAP4 POP DUP1 DUP7 AND DUP5 OR SWAP3 POP POP POP SWAP4 SWAP3 POP POP POP JUMP JUMPDEST PUSH0 DUP2 SWAP1 POP SWAP2 SWAP1 POP JUMP JUMPDEST PUSH0 PUSH2 0x7A3 PUSH2 0x79E PUSH2 0x799 DUP5 PUSH2 0x389 JUMP JUMPDEST PUSH2 0x780 JUMP JUMPDEST PUSH2 0x389 JUMP JUMPDEST SWAP1 POP SWAP2 SWAP1 POP JUMP JUMPDEST PUSH0 DUP2 SWAP1 POP SWAP2 SWAP1 POP JUMP JUMPDEST PUSH2 0x7BC DUP4 PUSH2 0x789 JUMP JUMPDEST PUSH2 0x7D0 PUSH2 0x7C8 DUP3 PUSH2 0x7AA JUMP JUMPDEST DUP5 DUP5 SLOAD PUSH2 0x72F JUMP JUMPDEST DUP3 SSTORE POP POP POP POP JUMP JUMPDEST PUSH0 SWAP1 JUMP JUMPDEST PUSH2 0x7E4 PUSH2 0x7D8 JUMP JUMPDEST PUSH2 0x7EF DUP2 DUP5 DUP5 PUSH2 0x7B3 JUMP JUMPDEST POP POP POP JUMP JUMPDEST JUMPDEST DUP2 DUP2 LT ISZERO PUSH2 0x812 JUMPI PUSH2 0x807 PUSH0 DUP3 PUSH2 0x7DC JUMP JUMPDEST PUSH1 0x1 DUP2 ADD SWAP1 POP PUSH2 0x7F5 JUMP JUMPDEST POP POP JUMP JUMPDEST PUSH1 0x1F DUP3 GT ISZERO PUSH2 0x857 JUMPI PUSH2 0x828 DUP2 PUSH2 0x702 JUMP JUMPDEST PUSH2 0x831 DUP5 PUSH2 0x714 JUMP JUMPDEST DUP2 ADD PUSH1 0x20 DUP6 LT ISZERO PUSH2 0x840 JUMPI DUP2 SWAP1 POP JUMPDEST PUSH2 0x854 PUSH2 0x84C DUP6 PUSH2 0x714 JUMP JUMPDEST DUP4 ADD DUP3 PUSH2 0x7F4 JUMP JUMPDEST POP POP JUMPDEST POP POP POP JUMP JUMPDEST PUSH0 DUP3 DUP3 SHR SWAP1 POP SWAP3 SWAP2 POP POP JUMP JUMPDEST PUSH0 PUSH2 0x877 PUSH0 NOT DUP5 PUSH1 0x8 MUL PUSH2 0x85C JUMP JUMPDEST NOT DUP1 DUP4 AND SWAP2 POP POP SWAP3 SWAP2 POP POP JUMP JUMPDEST PUSH0 PUSH2 0x88F DUP4 DUP4 PUSH2 0x868 JUMP JUMPDEST SWAP2 POP DUP3 PUSH1 0x2 MUL DUP3 OR SWAP1 POP SWAP3 SWAP2 POP POP JUMP JUMPDEST PUSH2 0x8A8 DUP3 PUSH2 0x5D2 JUMP JUMPDEST PUSH8 0xFFFFFFFFFFFFFFFF DUP2 GT ISZERO PUSH2 0x8C1 JUMPI PUSH2 0x8C0 PUSH2 0x3E3 JUMP JUMPDEST JUMPDEST PUSH2 0x8CB DUP3 SLOAD PUSH2 0x6D2 JUMP JUMPDEST PUSH2 0x8D6 DUP3 DUP3 DUP6 PUSH2 0x816 JUMP JUMPDEST PUSH0 PUSH1 0x20 SWAP1 POP PUSH1 0x1F DUP4 GT PUSH1 0x1 DUP2 EQ PUSH2 0x907 JUMPI PUSH0 DUP5 ISZERO PUSH2 0x8F5 JUMPI DUP3 DUP8 ADD MLOAD SWAP1 POP JUMPDEST PUSH2 0x8FF DUP6 DUP3 PUSH2 0x884 JUMP JUMPDEST DUP7 SSTORE POP PUSH2 0x966 JUMP JUMPDEST PUSH1 0x1F NOT DUP5 AND PUSH2 0x915 DUP7 PUSH2 0x702 JUMP JUMPDEST PUSH0 JUMPDEST DUP3 DUP2 LT ISZERO PUSH2 0x93C JUMPI DUP5 DUP10 ADD MLOAD DUP3 SSTORE PUSH1 0x1 DUP3 ADD SWAP2 POP PUSH1 0x20 DUP6 ADD SWAP5 POP PUSH1 0x20 DUP2 ADD SWAP1 POP PUSH2 0x917 JUMP JUMPDEST DUP7 DUP4 LT ISZERO PUSH2 0x959 JUMPI DUP5 DUP10 ADD MLOAD PUSH2 0x955 PUSH1 0x1F DUP10 AND DUP3 PUSH2 0x868 JUMP JUMPDEST DUP4 SSTORE POP JUMPDEST PUSH1 0x1 PUSH1 0x2 DUP9 MUL ADD DUP9 SSTORE POP POP POP JUMPDEST POP POP POP POP POP POP JUMP JUMPDEST PUSH0 DUP2 SWAP1 POP SWAP3 SWAP2 POP POP JUMP JUMPDEST PUSH0 PUSH2 0x982 DUP3 PUSH2 0x5D2 JUMP JUMPDEST PUSH2 0x98C DUP2 DUP6 PUSH2 0x96E JUMP JUMPDEST SWAP4 POP PUSH2 0x99C DUP2 DUP6 PUSH1 0x20 DUP7 ADD PUSH2 0x5EC JUMP JUMPDEST DUP1 DUP5 ADD SWAP2 POP POP SWAP3 SWAP2 POP POP JUMP JUMPDEST PUSH0 PUSH2 0x9B3 DUP3 DUP5 PUSH2 0x978 JUMP JUMPDEST SWAP2 POP DUP2 SWAP1 POP SWAP3 SWAP2 POP POP JUMP INVALID LOG2 PUSH5 0x6970667358 0x22 SLT KECCAK256 SSTORE SUB CALLCODE SIGNEXTEND 0xDE PUSH18 0xAE7F60405D421E39E6C63D9E437015929811 PUSH16 0x21A37F2DB2B8EE64736F6C6343000818 STOP CALLER "
				},
				"gasEstimates": {
					"creation": {
						"codeDepositCost": "509600",
						"executionCost": "infinite",
						"totalCost": "infinite"
					},
					"external": {
						"People(uint256)": "infinite",
						"addpersons(string,uint256)": "infinite",
						"fuInt()": "2491",
						"nameToNumber(string)": "infinite",
						"person1()": "infinite",
						"retrieve()": "2433",
						"store(uint256)": "22537"
					}
				},
				"methodIdentifiers": {
					"People(uint256)": "c7fb3468",
					"addpersons(string,uint256)": "3fbd5bf0",
					"fuInt()": "daa17951",
					"nameToNumber(string)": "2fae4ffd",
					"person1()": "46cb59c2",
					"retrieve()": "2e64cec1",
					"store(uint256)": "6057361d"
				}
			},
			"storageLayout": {
				"storage": [
					{
						"astId": 37,
						"contract": "simpoStorage.sol:SimpleStorage",
						"label": "w",
						"offset": 0,
						"slot": "0",
						"type": "t_uint256"
					},
					{
						"astId": 40,
						"contract": "simpoStorage.sol:SimpleStorage",
						"label": "fuInt",
						"offset": 0,
						"slot": "1",
						"type": "t_uint256"
					},
					{
						"astId": 70,
						"contract": "simpoStorage.sol:SimpleStorage",
						"label": "person1",
						"offset": 0,
						"slot": "2",
						"type": "t_struct(people)63_storage"
					},
					{
						"astId": 74,
						"contract": "simpoStorage.sol:SimpleStorage",
						"label": "People",
						"offset": 0,
						"slot": "4",
						"type": "t_array(t_struct(people)63_storage)dyn_storage"
					},
					{
						"astId": 78,
						"contract": "simpoStorage.sol:SimpleStorage",
						"label": "nameToNumber",
						"offset": 0,
						"slot": "5",
						"type": "t_mapping(t_string_memory_ptr,t_uint256)"
					}
				],
				"types": {
					"t_array(t_struct(people)63_storage)dyn_storage": {
						"base": "t_struct(people)63_storage",
						"encoding": "dynamic_array",
						"label": "struct SimpleStorage.people[]",
						"numberOfBytes": "32"
					},
					"t_mapping(t_string_memory_ptr,t_uint256)": {
						"encoding": "mapping",
						"key": "t_string_memory_ptr",
						"label": "mapping(string => uint256)",
						"numberOfBytes": "32",
						"value": "t_uint256"
					},
					"t_string_memory_ptr": {
						"encoding": "bytes",
						"label": "string",
						"numberOfBytes": "32"
					},
					"t_string_storage": {
						"encoding": "bytes",
						"label": "string",
						"numberOfBytes": "32"
					},
					"t_struct(people)63_storage": {
						"encoding": "inplace",
						"label": "struct SimpleStorage.people",
						"members": [
							{
								"astId": 60,
								"contract": "simpoStorage.sol:SimpleStorage",
								"label": "num",
								"offset": 0,
								"slot": "0",
								"type": "t_uint256"
							},
							{
								"astId": 62,
								"contract": "simpoStorage.sol:SimpleStorage",
								"label": "name",
								"offset": 0,
								"slot": "1",
								"type": "t_string_storage"
							}
						],
						"numberOfBytes": "64"
					},
					"t_uint256": {
						"encoding": "inplace",
						"label": "uint256",
						"numberOfBytes": "32"
					}
				}
			},
			"userdoc": {
				"kind": "user",
				"methods": {},
				"version": 1
			}
		}
	}
}