{
  "contractName": "Lottery",
  "abi": [
    {
      "inputs": [],
      "stateMutability": "nonpayable",
      "type": "constructor"
    },
    {
      "inputs": [],
      "name": "manager",
      "outputs": [
        {
          "internalType": "address",
          "name": "",
          "type": "address"
        }
      ],
      "stateMutability": "view",
      "type": "function"
    },
    {
      "inputs": [
        {
          "internalType": "uint256",
          "name": "",
          "type": "uint256"
        }
      ],
      "name": "p",
      "outputs": [
        {
          "internalType": "address payable",
          "name": "",
          "type": "address"
        }
      ],
      "stateMutability": "view",
      "type": "function"
    },
    {
      "stateMutability": "payable",
      "type": "receive"
    },
    {
      "inputs": [],
      "name": "getBalance",
      "outputs": [
        {
          "internalType": "uint256",
          "name": "",
          "type": "uint256"
        }
      ],
      "stateMutability": "view",
      "type": "function"
    },
    {
      "inputs": [],
      "name": "random",
      "outputs": [
        {
          "internalType": "uint256",
          "name": "",
          "type": "uint256"
        }
      ],
      "stateMutability": "nonpayable",
      "type": "function"
    },
    {
      "inputs": [],
      "name": "selectWinner",
      "outputs": [
        {
          "internalType": "address",
          "name": "",
          "type": "address"
        }
      ],
      "stateMutability": "nonpayable",
      "type": "function"
    }
  ],
  "bytecode": "0x608060405234801561000f575f80fd5b50335f806101000a81548173ffffffffffffffffffffffffffffffffffffffff021916908373ffffffffffffffffffffffffffffffffffffffff1602179055505f600281905550610934806100635f395ff3fe60806040526004361061004d575f3560e01c806312065fe01461010257806333a99e041461012c578063481c6a75146101565780635ec01e4d14610180578063a9692047146101aa576100fe565b366100fe57670214e8348c4f000034101561009d576040517f08c379a000000000000000000000000000000000000000000000000000000000815260040161009490610555565b60405180910390fd5b600133908060018154018082558091505060019003905f5260205f20015f9091909190916101000a81548173ffffffffffffffffffffffffffffffffffffffff021916908373ffffffffffffffffffffffffffffffffffffffff1602179055005b5f80fd5b34801561010d575f80fd5b506101166101e6565b604051610123919061058b565b60405180910390f35b348015610137575f80fd5b5061014061027b565b60405161014d91906105e3565b60405180910390f35b348015610161575f80fd5b5061016a610412565b60405161017791906105e3565b60405180910390f35b34801561018b575f80fd5b50610194610435565b6040516101a1919061058b565b60405180910390f35b3480156101b5575f80fd5b506101d060048036038101906101cb919061062a565b61046e565b6040516101dd9190610675565b60405180910390f35b5f805f9054906101000a900473ffffffffffffffffffffffffffffffffffffffff1673ffffffffffffffffffffffffffffffffffffffff163373ffffffffffffffffffffffffffffffffffffffff1614610275576040517f08c379a000000000000000000000000000000000000000000000000000000000815260040161026c906106d8565b60405180910390fd5b47905090565b5f805f9054906101000a900473ffffffffffffffffffffffffffffffffffffffff1673ffffffffffffffffffffffffffffffffffffffff163373ffffffffffffffffffffffffffffffffffffffff161461030a576040517f08c379a000000000000000000000000000000000000000000000000000000000815260040161030190610740565b60405180910390fd5b60026001805490501015610353576040517f08c379a000000000000000000000000000000000000000000000000000000000815260040161034a906107a8565b60405180910390fd5b5f61035c610435565b90505f806001805490508361037191906107f3565b90506001818154811061038757610386610823565b5b905f5260205f20015f9054906101000a900473ffffffffffffffffffffffffffffffffffffffff1691508173ffffffffffffffffffffffffffffffffffffffff166108fc6103d36101e6565b90811502906040515f60405180830381858888f193505050501580156103fb573d5f803e3d5ffd5b5060015f61040991906104c2565b81935050505090565b5f8054906101000a900473ffffffffffffffffffffffffffffffffffffffff1681565b5f61043e6104a9565b6002546040516020016104519190610870565b604051602081830303815290604052805190602001205f1c905090565b6001818154811061047d575f80fd5b905f5260205f20015f915054906101000a900473ffffffffffffffffffffffffffffffffffffffff1681565b60025f8154809291906104bb906108b7565b9190505550565b5080545f8255905f5260205f20908101906104dd91906104e0565b50565b5b808211156104f7575f815f9055506001016104e1565b5090565b5f82825260208201905092915050565b7f4d696e696d756d20302e313520657468657220726571756972656400000000005f82015250565b5f61053f601b836104fb565b915061054a8261050b565b602082019050919050565b5f6020820190508181035f83015261056c81610533565b9050919050565b5f819050919050565b61058581610573565b82525050565b5f60208201905061059e5f83018461057c565b92915050565b5f73ffffffffffffffffffffffffffffffffffffffff82169050919050565b5f6105cd826105a4565b9050919050565b6105dd816105c3565b82525050565b5f6020820190506105f65f8301846105d4565b92915050565b5f80fd5b61060981610573565b8114610613575f80fd5b50565b5f8135905061062481610600565b92915050565b5f6020828403121561063f5761063e6105fc565b5b5f61064c84828501610616565b91505092915050565b5f61065f826105a4565b9050919050565b61066f81610655565b82525050565b5f6020820190506106885f830184610666565b92915050565b7f4f6e6c79206d616e616765722063616e20636865636b2062616c616e636500005f82015250565b5f6106c2601e836104fb565b91506106cd8261068e565b602082019050919050565b5f6020820190508181035f8301526106ef816106b6565b9050919050565b7f4f6e6c79206d616e616765722063616e2073656c6563742077696e6e657200005f82015250565b5f61072a601e836104fb565b9150610735826106f6565b602082019050919050565b5f6020820190508181035f8301526107578161071e565b9050919050565b7f4e6f7420656e6f756768207061727469636970616e74730000000000000000005f82015250565b5f6107926017836104fb565b915061079d8261075e565b602082019050919050565b5f6020820190508181035f8301526107bf81610786565b9050919050565b7f4e487b71000000000000000000000000000000000000000000000000000000005f52601260045260245ffd5b5f6107fd82610573565b915061080883610573565b925082610818576108176107c6565b5b828206905092915050565b7f4e487b71000000000000000000000000000000000000000000000000000000005f52603260045260245ffd5b5f819050919050565b61086a61086582610573565b610850565b82525050565b5f61087b8284610859565b60208201915081905092915050565b7f4e487b71000000000000000000000000000000000000000000000000000000005f52601160045260245ffd5b5f6108c182610573565b91507fffffffffffffffffffffffffffffffffffffffffffffffffffffffffffffffff82036108f3576108f261088a565b5b60018201905091905056fea26469706673582212207591466ca4410a18c414bb8db1bba891dfdf44f278118528fb7e2f622611d46964736f6c63430008150033",
  "immutableReferences": {},
  "source": "// SPDX-License-Identifier: MIT\npragma solidity >=0.6.0 <0.9.0;\n\ncontract Lottery {\n    address public manager;\n    address payable[] public p;\n    uint private counter;\n\n    constructor() {\n        manager = msg.sender;\n        counter = 0;\n    }\n\n    receive() external payable {\n        require(msg.value >= 0.15 ether, \"Minimum 0.15 ether required\");\n        p.push(payable(msg.sender));\n    }\n\n    function getBalance() public view returns(uint) {\n        require(msg.sender == manager, \"Only manager can check balance\");\n        return address(this).balance;\n    }\n\n    function incrementCounter() private {\n        counter++;\n    }\n\n    function random() public returns(uint) {\n        incrementCounter();\n        return uint(keccak256(abi.encodePacked(counter)));\n    }\n\n    function selectWinner() public returns(address) {\n        require(msg.sender == manager, \"Only manager can select winner\");\n        require(p.length >= 2, \"Not enough participants\");\n\n        uint r = random();\n        address payable winner;\n        uint index = r % p.length;\n        winner = p[index];\n        winner.transfer(getBalance());\n        delete p;\n        return winner;\n    }\n}\n",
  "sourcePath": "/Users/saksham/Downloads/default_workspace/contracts/lottery.sol",
  "compiler": {
    "name": "solc",
    "version": "0.8.21+commit.d9974bed.Emscripten.clang"
  },
  "schemaVersion": "3.4.16",
  "updatedAt": "2024-06-09T09:12:21.128Z",
  "devdoc": {
    "kind": "dev",
    "methods": {},
    "version": 1
  },
  "userdoc": {
    "kind": "user",
    "methods": {},
    "version": 1
  }
}