{
	"data": {
		"bytecode": {
			"linkReferences": {},
			"object": "608060405234801561000f575f80fd5b5060fa8061001c5f395ff3fe6080604052348015600e575f80fd5b5060043610603a575f3560e01c8063233ec35b14603e578063262a9dff1460465780634e70b1dc146060575b5f80fd5b6044607a565b005b604c608c565b6040516057919060ad565b60405180910390f35b60666091565b6040516071919060ad565b60405180910390f35b600a5f819055506103e7600181905550565b5f5481565b60015481565b5f819050919050565b60a7816097565b82525050565b5f60208201905060be5f83018460a0565b9291505056fea26469706673582212208b3bb376c12b1628d72eb810d364b1682343383ef400236d792ce692efb7513064736f6c63430008180033",
			"opcodes": "PUSH1 0x80 PUSH1 0x40 MSTORE CALLVALUE DUP1 ISZERO PUSH2 0xF JUMPI PUSH0 DUP1 REVERT JUMPDEST POP PUSH1 0xFA DUP1 PUSH2 0x1C PUSH0 CODECOPY PUSH0 RETURN INVALID PUSH1 0x80 PUSH1 0x40 MSTORE CALLVALUE DUP1 ISZERO PUSH1 0xE JUMPI PUSH0 DUP1 REVERT JUMPDEST POP PUSH1 0x4 CALLDATASIZE LT PUSH1 0x3A JUMPI PUSH0 CALLDATALOAD PUSH1 0xE0 SHR DUP1 PUSH4 0x233EC35B EQ PUSH1 0x3E JUMPI DUP1 PUSH4 0x262A9DFF EQ PUSH1 0x46 JUMPI DUP1 PUSH4 0x4E70B1DC EQ PUSH1 0x60 JUMPI JUMPDEST PUSH0 DUP1 REVERT JUMPDEST PUSH1 0x44 PUSH1 0x7A JUMP JUMPDEST STOP JUMPDEST PUSH1 0x4C PUSH1 0x8C JUMP JUMPDEST PUSH1 0x40 MLOAD PUSH1 0x57 SWAP2 SWAP1 PUSH1 0xAD JUMP JUMPDEST PUSH1 0x40 MLOAD DUP1 SWAP2 SUB SWAP1 RETURN JUMPDEST PUSH1 0x66 PUSH1 0x91 JUMP JUMPDEST PUSH1 0x40 MLOAD PUSH1 0x71 SWAP2 SWAP1 PUSH1 0xAD JUMP JUMPDEST PUSH1 0x40 MLOAD DUP1 SWAP2 SUB SWAP1 RETURN JUMPDEST PUSH1 0xA PUSH0 DUP2 SWAP1 SSTORE POP PUSH2 0x3E7 PUSH1 0x1 DUP2 SWAP1 SSTORE POP JUMP JUMPDEST PUSH0 SLOAD DUP2 JUMP JUMPDEST PUSH1 0x1 SLOAD DUP2 JUMP JUMPDEST PUSH0 DUP2 SWAP1 POP SWAP2 SWAP1 POP JUMP JUMPDEST PUSH1 0xA7 DUP2 PUSH1 0x97 JUMP JUMPDEST DUP3 MSTORE POP POP JUMP JUMPDEST PUSH0 PUSH1 0x20 DUP3 ADD SWAP1 POP PUSH1 0xBE PUSH0 DUP4 ADD DUP5 PUSH1 0xA0 JUMP JUMPDEST SWAP3 SWAP2 POP POP JUMP INVALID LOG2 PUSH5 0x6970667358 0x22 SLT KECCAK256 DUP12 EXTCODESIZE 0xB3 PUSH23 0xC12B1628D72EB810D364B1682343383EF400236D792CE6 SWAP3 0xEF 0xB7 MLOAD ADDRESS PUSH5 0x736F6C6343 STOP ADDMOD XOR STOP CALLER "
		},
		"gasEstimates": {
			"creation": {
				"codeDepositCost": "50000",
				"executionCost": "97",
				"totalCost": "50097"
			},
			"external": {
				"age()": "2424",
				"num()": "2447",
				"setage()": "44348"
			}
		},
		"methodIdentifiers": {
			"age()": "262a9dff",
			"num()": "4e70b1dc",
			"setage()": "233ec35b"
		}
	},
	"abi": [
		{
			"inputs": [],
			"name": "age",
			"outputs": [
				{
					"internalType": "uint256",
					"name": "",
					"type": "uint256"
				}
			],
			"stateMutability": "view",
			"type": "function"
		},
		{
			"inputs": [],
			"name": "num",
			"outputs": [
				{
					"internalType": "uint256",
					"name": "",
					"type": "uint256"
				}
			],
			"stateMutability": "view",
			"type": "function"
		},
		{
			"inputs": [],
			"name": "setage",
			"outputs": [],
			"stateMutability": "nonpayable",
			"type": "function"
		}
	]
}